{
  "contractName": "IpfsManager",
  "abi": [
    {
      "inputs": [],
      "stateMutability": "nonpayable",
      "type": "constructor"
    },
    {
      "anonymous": false,
      "inputs": [
        {
          "indexed": false,
          "internalType": "address",
          "name": "creator",
          "type": "address"
        },
        {
          "indexed": false,
          "internalType": "uint256",
          "name": "id",
          "type": "uint256"
        },
        {
          "indexed": false,
          "internalType": "uint256",
          "name": "block_price",
          "type": "uint256"
        },
        {
          "indexed": false,
          "internalType": "string",
          "name": "api_url",
          "type": "string"
        }
      ],
      "name": "AddProvider",
      "type": "event"
    },
    {
      "anonymous": false,
      "inputs": [
        {
          "indexed": false,
          "internalType": "uint256",
          "name": "id",
          "type": "uint256"
        },
        {
          "indexed": false,
          "internalType": "address",
          "name": "account",
          "type": "address"
        }
      ],
      "name": "UpdateProviderAddress",
      "type": "event"
    },
    {
      "anonymous": false,
      "inputs": [
        {
          "indexed": false,
          "internalType": "uint256",
          "name": "id",
          "type": "uint256"
        },
        {
          "indexed": false,
          "internalType": "string",
          "name": "url",
          "type": "string"
        }
      ],
      "name": "UpdateProviderApiUrl",
      "type": "event"
    },
    {
      "anonymous": false,
      "inputs": [
        {
          "indexed": false,
          "internalType": "uint256",
          "name": "id",
          "type": "uint256"
        },
        {
          "indexed": false,
          "internalType": "uint256",
          "name": "price",
          "type": "uint256"
        }
      ],
      "name": "UpdateProviderBlockPrice",
      "type": "event"
    },
    {
      "anonymous": false,
      "inputs": [
        {
          "indexed": false,
          "internalType": "address",
          "name": "donor",
          "type": "address"
        },
        {
          "indexed": false,
          "internalType": "uint256",
          "name": "end_block",
          "type": "uint256"
        },
        {
          "indexed": false,
          "internalType": "uint256",
          "name": "provider_id",
          "type": "uint256"
        },
        {
          "indexed": false,
          "internalType": "string",
          "name": "cid",
          "type": "string"
        }
      ],
      "name": "UpdateValidBlock",
      "type": "event"
    },
    {
      "inputs": [
        {
          "internalType": "string",
          "name": "_api_url",
          "type": "string"
        },
        {
          "internalType": "uint256",
          "name": "_block_price",
          "type": "uint256"
        }
      ],
      "name": "add_pinning_service",
      "outputs": [],
      "stateMutability": "nonpayable",
      "type": "function"
    },
    {
      "inputs": [
        {
          "internalType": "string",
          "name": "_cid",
          "type": "string"
        },
        {
          "internalType": "uint256",
          "name": "_num_blocks",
          "type": "uint256"
        },
        {
          "internalType": "uint256",
          "name": "_provider_id",
          "type": "uint256"
        }
      ],
      "name": "add_new_valid_block",
      "outputs": [],
      "stateMutability": "payable",
      "type": "function",
      "payable": true
    },
    {
      "inputs": [
        {
          "internalType": "string",
          "name": "_cid",
          "type": "string"
        },
        {
          "internalType": "uint256",
          "name": "_provider_id",
          "type": "uint256"
        }
      ],
      "name": "get_valid_block",
      "outputs": [
        {
          "internalType": "uint256",
          "name": "",
          "type": "uint256"
        }
      ],
      "stateMutability": "view",
      "type": "function",
      "constant": true
    },
    {
      "inputs": [
        {
          "internalType": "uint256",
          "name": "_blocks",
          "type": "uint256"
        },
        {
          "internalType": "uint256",
          "name": "_provider_id",
          "type": "uint256"
        }
      ],
      "name": "get_total_price_for_blocks",
      "outputs": [
        {
          "internalType": "uint256",
          "name": "",
          "type": "uint256"
        },
        {
          "internalType": "uint256",
          "name": "",
          "type": "uint256"
        }
      ],
      "stateMutability": "view",
      "type": "function",
      "constant": true
    },
    {
      "inputs": [
        {
          "internalType": "uint256",
          "name": "_price_wei",
          "type": "uint256"
        },
        {
          "internalType": "uint256",
          "name": "_provider_id",
          "type": "uint256"
        }
      ],
      "name": "update_block_price",
      "outputs": [],
      "stateMutability": "nonpayable",
      "type": "function"
    },
    {
      "inputs": [
        {
          "internalType": "string",
          "name": "_url",
          "type": "string"
        },
        {
          "internalType": "uint256",
          "name": "_provider_id",
          "type": "uint256"
        }
      ],
      "name": "update_api_url",
      "outputs": [],
      "stateMutability": "nonpayable",
      "type": "function"
    },
    {
      "inputs": [
        {
          "internalType": "address",
          "name": "_new",
          "type": "address"
        },
        {
          "internalType": "uint256",
          "name": "_provider_id",
          "type": "uint256"
        }
      ],
      "name": "update_address",
      "outputs": [],
      "stateMutability": "nonpayable",
      "type": "function"
    },
    {
      "inputs": [
        {
          "internalType": "uint256",
          "name": "_provider_id",
          "type": "uint256"
        }
      ],
      "name": "get_per_block_price",
      "outputs": [
        {
          "internalType": "uint256",
          "name": "",
          "type": "uint256"
        }
      ],
      "stateMutability": "view",
      "type": "function",
      "constant": true
    },
    {
      "inputs": [],
      "name": "withdraw",
      "outputs": [],
      "stateMutability": "nonpayable",
      "type": "function"
    },
    {
      "inputs": [
        {
          "internalType": "uint24",
          "name": "_fee",
          "type": "uint24"
        }
      ],
      "name": "update_dev_fee",
      "outputs": [],
      "stateMutability": "nonpayable",
      "type": "function"
    }
  ],
  "bytecode": "0x6080604052620186a0600460006101000a81548162ffffff021916908362ffffff1602179055506109c4600460036101000a81548162ffffff021916908362ffffff16021790555034801561005357600080fd5b5033600160006101000a81548173ffffffffffffffffffffffffffffffffffffffff021916908373ffffffffffffffffffffffffffffffffffffffff1602179055506118fe806100a46000396000f3fe6080604052600436106100915760003560e01c8063524d140011610059578063524d1400146101655780635d182b04146101a35780635edf389f146101e0578063be9b7cae14610209578063c080bce51461022557610091565b8063050d0c3b1461009657806330b67972146100d357806338f636ce146100fc5780633ccfd60b146101255780633d8305eb1461013c575b600080fd5b3480156100a257600080fd5b506100bd60048036038101906100b89190610e88565b61024e565b6040516100ca9190610ec4565b60405180910390f35b3480156100df57600080fd5b506100fa60048036038101906100f59190610edf565b61026e565b005b34801561010857600080fd5b50610123600480360381019061011e9190610f7d565b6103c2565b005b34801561013157600080fd5b5061013a6104f8565b005b34801561014857600080fd5b50610163600480360381019061015e9190610ff8565b61065f565b005b34801561017157600080fd5b5061018c60048036038101906101879190610edf565b610711565b60405161019a929190611025565b60405180910390f35b3480156101af57600080fd5b506101ca60048036038101906101c59190611194565b6107f7565b6040516101d79190610ec4565b60405180910390f35b3480156101ec57600080fd5b5061020760048036038101906102029190611194565b610831565b005b610223600480360381019061021e91906111f0565b61093d565b005b34801561023157600080fd5b5061024c60048036038101906102479190611194565b610bce565b005b600060036000838152602001908152602001600020600101549050919050565b6003600082815260200190815260200160002060000160009054906101000a900473ffffffffffffffffffffffffffffffffffffffff1673ffffffffffffffffffffffffffffffffffffffff163373ffffffffffffffffffffffffffffffffffffffff1614610312576040517f08c379a0000000000000000000000000000000000000000000000000000000008152600401610309906112bc565b60405180910390fd5b600460009054906101000a900462ffffff1662ffffff16821161036a576040517f08c379a000000000000000000000000000000000000000000000000000000000815260040161036190611328565b60405180910390fd5b8160036000838152602001908152602001600020600101819055507fec1c064b3e0d42c77434c33e11e65c358db8b172b06b51f98471b218fd5c1a4281836040516103b6929190611025565b60405180910390a15050565b6003600082815260200190815260200160002060000160009054906101000a900473ffffffffffffffffffffffffffffffffffffffff1673ffffffffffffffffffffffffffffffffffffffff163373ffffffffffffffffffffffffffffffffffffffff1614610466576040517f08c379a000000000000000000000000000000000000000000000000000000000815260040161045d906112bc565b60405180910390fd5b816003600083815260200190815260200160002060000160006101000a81548173ffffffffffffffffffffffffffffffffffffffff021916908373ffffffffffffffffffffffffffffffffffffffff1602179055507f1fc6b216311f9fa89ad93d031e4469f4d01392619b996ecb92414f13f300d67a81836040516104ec929190611357565b60405180910390a15050565b600160009054906101000a900473ffffffffffffffffffffffffffffffffffffffff1673ffffffffffffffffffffffffffffffffffffffff163373ffffffffffffffffffffffffffffffffffffffff1614610588576040517f08c379a000000000000000000000000000000000000000000000000000000000815260040161057f906113cc565b60405180910390fd5b60004790506000600160009054906101000a900473ffffffffffffffffffffffffffffffffffffffff1673ffffffffffffffffffffffffffffffffffffffff16826040516105d59061141d565b60006040518083038185875af1925050503d8060008114610612576040519150601f19603f3d011682016040523d82523d6000602084013e610617565b606091505b505090508061065b576040517f08c379a00000000000000000000000000000000000000000000000000000000081526004016106529061147e565b60405180910390fd5b5050565b600160009054906101000a900473ffffffffffffffffffffffffffffffffffffffff1673ffffffffffffffffffffffffffffffffffffffff163373ffffffffffffffffffffffffffffffffffffffff16146106ef576040517f08c379a00000000000000000000000000000000000000000000000000000000081526004016106e6906113cc565b60405180910390fd5b80600460036101000a81548162ffffff021916908362ffffff16021790555050565b600080600061073f600360008681526020019081526020016000206001015486610d3590919063ffffffff16565b9050600460009054906101000a900462ffffff1662ffffff168111610799576040517f08c379a0000000000000000000000000000000000000000000000000000000008152600401610790906114ea565b60405180910390fd5b806107eb600460009054906101000a900462ffffff1662ffffff166107dd600460039054906101000a900462ffffff1662ffffff1685610d3590919063ffffffff16565b610d4b90919063ffffffff16565b92509250509250929050565b60006002836040516108099190611584565b9081526020016040518091039020600083815260200190815260200160002054905092915050565b6003600082815260200190815260200160002060000160009054906101000a900473ffffffffffffffffffffffffffffffffffffffff1673ffffffffffffffffffffffffffffffffffffffff163373ffffffffffffffffffffffffffffffffffffffff16146108d5576040517f08c379a00000000000000000000000000000000000000000000000000000000081526004016108cc906112bc565b60405180910390fd5b816003600083815260200190815260200160002060020190805190602001906108ff929190610d9b565b507fbfb222ebe969b2a40aca8653b2b26bce1449b640a08dd46cead3a46357af5bb381836040516109319291906115d4565b60405180910390a15050565b60008211610980576040517f08c379a000000000000000000000000000000000000000000000000000000000815260040161097790611650565b60405180910390fd5b60008061098d8484610711565b915091506109a48183610d6190919063ffffffff16565b3410156109b057600080fd5b60006003600085815260200190815260200160002060000160009054906101000a900473ffffffffffffffffffffffffffffffffffffffff1673ffffffffffffffffffffffffffffffffffffffff1683604051610a0c9061141d565b60006040518083038185875af1925050503d8060008114610a49576040519150601f19603f3d011682016040523d82523d6000602084013e610a4e565b606091505b5050905080610a92576040517f08c379a0000000000000000000000000000000000000000000000000000000008152600401610a89906116bc565b60405180910390fd5b600043905080600288604051610aa89190611584565b90815260200160405180910390206000878152602001908152602001600020541115610b195785600288604051610adf9190611584565b908152602001604051809103902060008781526020019081526020016000206000828254610b0d919061170b565b92505081905550610b59565b8581610b25919061170b565b600288604051610b359190611584565b90815260200160405180910390206000878152602001908152602001600020819055505b7f8eeea39f88e876c5e3b819810106e7b58d37a3737f2d9771989186d16aeac60733600289604051610b8b9190611584565b9081526020016040518091039020600088815260200190815260200160002054878a604051610bbd9493929190611761565b60405180910390a150505050505050565b600460009054906101000a900462ffffff1662ffffff168111610c26576040517f08c379a0000000000000000000000000000000000000000000000000000000008152600401610c1d90611328565b60405180910390fd5b610c306000610d77565b6000610c3c6000610d8d565b905060405180606001604052803373ffffffffffffffffffffffffffffffffffffffff168152602001838152602001848152506003600083815260200190815260200160002060008201518160000160006101000a81548173ffffffffffffffffffffffffffffffffffffffff021916908373ffffffffffffffffffffffffffffffffffffffff160217905550602082015181600101556040820151816002019080519060200190610cef929190610d9b565b509050507f7ee51dd650ee4075e85b9aa6d637972a34f75d5bd2bbfe310cf605885fa1235a33828486604051610d289493929190611761565b60405180910390a1505050565b60008183610d4391906117ad565b905092915050565b60008183610d599190611836565b905092915050565b60008183610d6f919061170b565b905092915050565b6001816000016000828254019250508190555050565b600081600001549050919050565b828054610da790611896565b90600052602060002090601f016020900481019282610dc95760008555610e10565b82601f10610de257805160ff1916838001178555610e10565b82800160010185558215610e10579182015b82811115610e0f578251825591602001919060010190610df4565b5b509050610e1d9190610e21565b5090565b5b80821115610e3a576000816000905550600101610e22565b5090565b6000604051905090565b600080fd5b600080fd5b6000819050919050565b610e6581610e52565b8114610e7057600080fd5b50565b600081359050610e8281610e5c565b92915050565b600060208284031215610e9e57610e9d610e48565b5b6000610eac84828501610e73565b91505092915050565b610ebe81610e52565b82525050565b6000602082019050610ed96000830184610eb5565b92915050565b60008060408385031215610ef657610ef5610e48565b5b6000610f0485828601610e73565b9250506020610f1585828601610e73565b9150509250929050565b600073ffffffffffffffffffffffffffffffffffffffff82169050919050565b6000610f4a82610f1f565b9050919050565b610f5a81610f3f565b8114610f6557600080fd5b50565b600081359050610f7781610f51565b92915050565b60008060408385031215610f9457610f93610e48565b5b6000610fa285828601610f68565b9250506020610fb385828601610e73565b9150509250929050565b600062ffffff82169050919050565b610fd581610fbd565b8114610fe057600080fd5b50565b600081359050610ff281610fcc565b92915050565b60006020828403121561100e5761100d610e48565b5b600061101c84828501610fe3565b91505092915050565b600060408201905061103a6000830185610eb5565b6110476020830184610eb5565b9392505050565b600080fd5b600080fd5b6000601f19601f8301169050919050565b7f4e487b7100000000000000000000000000000000000000000000000000000000600052604160045260246000fd5b6110a182611058565b810181811067ffffffffffffffff821117156110c0576110bf611069565b5b80604052505050565b60006110d3610e3e565b90506110df8282611098565b919050565b600067ffffffffffffffff8211156110ff576110fe611069565b5b61110882611058565b9050602081019050919050565b82818337600083830152505050565b6000611137611132846110e4565b6110c9565b90508281526020810184848401111561115357611152611053565b5b61115e848285611115565b509392505050565b600082601f83011261117b5761117a61104e565b5b813561118b848260208601611124565b91505092915050565b600080604083850312156111ab576111aa610e48565b5b600083013567ffffffffffffffff8111156111c9576111c8610e4d565b5b6111d585828601611166565b92505060206111e685828601610e73565b9150509250929050565b60008060006060848603121561120957611208610e48565b5b600084013567ffffffffffffffff81111561122757611226610e4d565b5b61123386828701611166565b935050602061124486828701610e73565b925050604061125586828701610e73565b9150509250925092565b600082825260208201905092915050565b7f77726f6e67206164647265737300000000000000000000000000000000000000600082015250565b60006112a6600d8361125f565b91506112b182611270565b602082019050919050565b600060208201905081810360008301526112d581611299565b9050919050565b7f626c6f636b207072696365203c3d203130303030300000000000000000000000600082015250565b600061131260158361125f565b915061131d826112dc565b602082019050919050565b6000602082019050818103600083015261134181611305565b9050919050565b61135181610f3f565b82525050565b600060408201905061136c6000830185610eb5565b6113796020830184611348565b9392505050565b7f4e6f7420746865206465706c6f79657200000000000000000000000000000000600082015250565b60006113b660108361125f565b91506113c182611380565b602082019050919050565b600060208201905081810360008301526113e5816113a9565b9050919050565b600081905092915050565b50565b60006114076000836113ec565b9150611412826113f7565b600082019050919050565b6000611428826113fa565b9150819050919050565b7f4661696c656420746f2077697468647261772062616c616e6365000000000000600082015250565b6000611468601a8361125f565b915061147382611432565b602082019050919050565b600060208201905081810360008301526114978161145b565b9050919050565b7f746f74616c3c3130303030300000000000000000000000000000000000000000600082015250565b60006114d4600c8361125f565b91506114df8261149e565b602082019050919050565b60006020820190508181036000830152611503816114c7565b9050919050565b600081519050919050565b600081905092915050565b60005b8381101561153e578082015181840152602081019050611523565b8381111561154d576000848401525b50505050565b600061155e8261150a565b6115688185611515565b9350611578818560208601611520565b80840191505092915050565b60006115908284611553565b915081905092915050565b60006115a68261150a565b6115b0818561125f565b93506115c0818560208601611520565b6115c981611058565b840191505092915050565b60006040820190506115e96000830185610eb5565b81810360208301526115fb818461159b565b90509392505050565b7f626c6f636b733d30000000000000000000000000000000000000000000000000600082015250565b600061163a60088361125f565b915061164582611604565b602082019050919050565b600060208201905081810360008301526116698161162d565b9050919050565b7f4661696c656420746f2073656e642070726f7669646572206665650000000000600082015250565b60006116a6601b8361125f565b91506116b182611670565b602082019050919050565b600060208201905081810360008301526116d581611699565b9050919050565b7f4e487b7100000000000000000000000000000000000000000000000000000000600052601160045260246000fd5b600061171682610e52565b915061172183610e52565b9250827fffffffffffffffffffffffffffffffffffffffffffffffffffffffffffffffff03821115611756576117556116dc565b5b828201905092915050565b60006080820190506117766000830187611348565b6117836020830186610eb5565b6117906040830185610eb5565b81810360608301526117a2818461159b565b905095945050505050565b60006117b882610e52565b91506117c383610e52565b9250817fffffffffffffffffffffffffffffffffffffffffffffffffffffffffffffffff04831182151516156117fc576117fb6116dc565b5b828202905092915050565b7f4e487b7100000000000000000000000000000000000000000000000000000000600052601260045260246000fd5b600061184182610e52565b915061184c83610e52565b92508261185c5761185b611807565b5b828204905092915050565b7f4e487b7100000000000000000000000000000000000000000000000000000000600052602260045260246000fd5b600060028204905060018216806118ae57607f821691505b602082108114156118c2576118c1611867565b5b5091905056fea2646970667358221220fbf085ab2fd5ffe21f0f205626d7384c45f08374362cf1902da0da2bc3a9291564736f6c634300080b0033",
  "immutableReferences": {},
  "source": "// SPDX-License-Identifier: GPL-3.0\npragma solidity >=0.8.0 <0.9.0;\n\nimport \"@openzeppelin/contracts/utils/math/SafeMath.sol\";\nimport \"@openzeppelin/contracts/utils/Counters.sol\";\n\ncontract IpfsManager {\n  using SafeMath for uint256;\n  using Counters for Counters.Counter;\n  Counters.Counter private providers_id;\n\n  struct Provider{\n    address account;\n    uint256 block_price;\n    string api_url;\n  }\n\n  address private deployer;\n  mapping(string=>mapping(uint256=>uint256)) private cid_valid_block;\n  mapping(uint256=>Provider) private service_providers; // addresses to pay to for pinning services\n  // uint256 private per_block_price = 100*1e9; // 100 Gwei\n  uint24 decimals = 100000;\n  uint24 developer_fee = 2500; //2.5%\n\n  event UpdateValidBlock(address donor, uint256 end_block, uint256 provider_id, string cid);\n  event AddProvider(address creator, uint256 id, uint256 block_price, string api_url);\n  event UpdateProviderBlockPrice(uint256 id, uint256 price);\n  event UpdateProviderApiUrl(uint256 id, string url);\n  event UpdateProviderAddress(uint256 id, address account);\n\n  modifier onlyOwner() {\n        require(msg.sender == deployer, \"Not the deployer\");\n        _;\n    }\n\n  function add_pinning_service(string memory _api_url, uint256 _block_price) public{\n    require(_block_price>decimals, \"block price <= 100000\");\n    providers_id.increment();\n    uint256 id = providers_id.current();\n    service_providers[id] = Provider(msg.sender, _block_price, _api_url);\n    emit AddProvider(msg.sender, id, _block_price, _api_url);\n  }\n\n  function add_new_valid_block(string memory _cid, uint256 _num_blocks, uint256 _provider_id) public payable{\n    require(_num_blocks>0, \"blocks=0\");\n    (uint256 total_price, uint256 fee) = get_total_price_for_blocks(_num_blocks, _provider_id);\n    require(msg.value>=total_price.add(fee));\n     \n    (bool success_provider,) = service_providers[_provider_id].account.call{value: total_price}(\"\");\n    require(success_provider, \"Failed to send provider fee\");\n    \n    uint curBlock = block.number;\n    if(cid_valid_block[_cid][_provider_id]>curBlock){\n      cid_valid_block[_cid][_provider_id] += _num_blocks; \n    }else{\n      cid_valid_block[_cid][_provider_id] = curBlock+_num_blocks;\n    } \n    \n    emit UpdateValidBlock(msg.sender, cid_valid_block[_cid][_provider_id], _provider_id, _cid);\n  }\n\n  function get_valid_block(string memory _cid, uint256 _provider_id) public view returns(uint256){\n    return cid_valid_block[_cid][_provider_id];\n  }\n\n  function get_total_price_for_blocks(uint256 _blocks, uint256 _provider_id) public view returns(uint256, uint256){\n    uint256 price_for_blocks = _blocks.mul(service_providers[_provider_id].block_price);\n    require(price_for_blocks>decimals, \"total<100000\");\n    return (price_for_blocks,  price_for_blocks.mul(developer_fee).div(decimals));\n  }\n\n  function update_block_price(uint256 _price_wei, uint256 _provider_id) public{\n    require(msg.sender==service_providers[_provider_id].account, \"wrong address\");\n    require(_price_wei>decimals, \"block price <= 100000\");\n    service_providers[_provider_id].block_price = _price_wei;\n    emit UpdateProviderBlockPrice(_provider_id, _price_wei);\n  }\n\n  function update_api_url(string memory _url, uint256 _provider_id) public{\n    require(msg.sender==service_providers[_provider_id].account, \"wrong address\");\n    service_providers[_provider_id].api_url = _url;\n    emit UpdateProviderApiUrl(_provider_id, _url);\n  }\n\n  function update_address(address _new, uint256 _provider_id) public{\n    require(msg.sender==service_providers[_provider_id].account, \"wrong address\");\n    service_providers[_provider_id].account = _new;\n    emit UpdateProviderAddress(_provider_id, _new);\n  }\n\n  function get_per_block_price(uint256 _provider_id) public view returns(uint256){\n    return service_providers[_provider_id].block_price;\n  }\n\n  function withdraw() public onlyOwner{\n        // get the amount of Ether stored in this contract\n        uint amount = address(this).balance;\n\n        // send all Ether to deployer\n        (bool success,) = deployer.call{value: amount}(\"\");\n        require(success, \"Failed to withdraw balance\");\n  }\n\n  function update_dev_fee(uint24 _fee) public onlyOwner{\n    developer_fee = _fee;\n  }\n  \n  constructor() {\n    deployer = msg.sender;\n  }\n}\n",
  "sourcePath": "/home/beast/Documents/Projects/anspar/anspar-ipfs/ipfs-manager/contracts/ipfsManager.sol",
  "compiler": {
    "name": "solc",
    "version": "0.8.11+commit.d7f03943.Emscripten.clang"
  },
  "schemaVersion": "3.4.3",
  "updatedAt": "2022-01-28T20:41:34.787Z",
  "networkType": "ethereum",
  "devdoc": {
    "kind": "dev",
    "methods": {},
    "version": 1
  },
  "userdoc": {
    "kind": "user",
    "methods": {},
    "version": 1
  }
}