{
  "contractName": "IpfsManager",
  "abi": [
    {
      "inputs": [],
      "stateMutability": "nonpayable",
      "type": "constructor"
    },
    {
      "anonymous": false,
      "inputs": [
        {
          "indexed": false,
          "internalType": "address",
          "name": "creator",
          "type": "address"
        },
        {
          "indexed": false,
          "internalType": "uint256",
          "name": "id",
          "type": "uint256"
        },
        {
          "indexed": false,
          "internalType": "uint256",
          "name": "block_price",
          "type": "uint256"
        },
        {
          "indexed": false,
          "internalType": "string",
          "name": "api_url",
          "type": "string"
        },
        {
          "indexed": false,
          "internalType": "string",
          "name": "name",
          "type": "string"
        }
      ],
      "name": "AddProvider",
      "type": "event"
    },
    {
      "anonymous": false,
      "inputs": [
        {
          "indexed": false,
          "internalType": "uint256",
          "name": "id",
          "type": "uint256"
        },
        {
          "indexed": false,
          "internalType": "address",
          "name": "account",
          "type": "address"
        }
      ],
      "name": "UpdateProviderAddress",
      "type": "event"
    },
    {
      "anonymous": false,
      "inputs": [
        {
          "indexed": false,
          "internalType": "uint256",
          "name": "id",
          "type": "uint256"
        },
        {
          "indexed": false,
          "internalType": "string",
          "name": "url",
          "type": "string"
        }
      ],
      "name": "UpdateProviderApiUrl",
      "type": "event"
    },
    {
      "anonymous": false,
      "inputs": [
        {
          "indexed": false,
          "internalType": "uint256",
          "name": "id",
          "type": "uint256"
        },
        {
          "indexed": false,
          "internalType": "uint256",
          "name": "price",
          "type": "uint256"
        }
      ],
      "name": "UpdateProviderBlockPrice",
      "type": "event"
    },
    {
      "anonymous": false,
      "inputs": [
        {
          "indexed": false,
          "internalType": "uint256",
          "name": "id",
          "type": "uint256"
        },
        {
          "indexed": false,
          "internalType": "string",
          "name": "name",
          "type": "string"
        }
      ],
      "name": "UpdateProviderName",
      "type": "event"
    },
    {
      "anonymous": false,
      "inputs": [
        {
          "indexed": false,
          "internalType": "address",
          "name": "donor",
          "type": "address"
        },
        {
          "indexed": false,
          "internalType": "uint256",
          "name": "end_block",
          "type": "uint256"
        },
        {
          "indexed": false,
          "internalType": "uint256",
          "name": "provider_id",
          "type": "uint256"
        },
        {
          "indexed": false,
          "internalType": "string",
          "name": "cid",
          "type": "string"
        }
      ],
      "name": "UpdateValidBlock",
      "type": "event"
    },
    {
      "inputs": [
        {
          "internalType": "string",
          "name": "_api_url",
          "type": "string"
        },
        {
          "internalType": "uint256",
          "name": "_block_price",
          "type": "uint256"
        },
        {
          "internalType": "string",
          "name": "_name",
          "type": "string"
        }
      ],
      "name": "add_pinning_service",
      "outputs": [],
      "stateMutability": "nonpayable",
      "type": "function"
    },
    {
      "inputs": [
        {
          "internalType": "string",
          "name": "_cid",
          "type": "string"
        },
        {
          "internalType": "uint256",
          "name": "_num_blocks",
          "type": "uint256"
        },
        {
          "internalType": "uint256",
          "name": "_provider_id",
          "type": "uint256"
        }
      ],
      "name": "add_new_valid_block",
      "outputs": [],
      "stateMutability": "payable",
      "type": "function",
      "payable": true
    },
    {
      "inputs": [
        {
          "internalType": "string",
          "name": "_cid",
          "type": "string"
        },
        {
          "internalType": "uint256",
          "name": "_provider_id",
          "type": "uint256"
        }
      ],
      "name": "get_valid_block",
      "outputs": [
        {
          "internalType": "uint256",
          "name": "",
          "type": "uint256"
        }
      ],
      "stateMutability": "view",
      "type": "function",
      "constant": true
    },
    {
      "inputs": [
        {
          "internalType": "uint256",
          "name": "_blocks",
          "type": "uint256"
        },
        {
          "internalType": "uint256",
          "name": "_provider_id",
          "type": "uint256"
        }
      ],
      "name": "get_total_price_for_blocks",
      "outputs": [
        {
          "internalType": "uint256",
          "name": "",
          "type": "uint256"
        },
        {
          "internalType": "uint256",
          "name": "",
          "type": "uint256"
        }
      ],
      "stateMutability": "view",
      "type": "function",
      "constant": true
    },
    {
      "inputs": [
        {
          "internalType": "uint256",
          "name": "_price_wei",
          "type": "uint256"
        },
        {
          "internalType": "uint256",
          "name": "_provider_id",
          "type": "uint256"
        }
      ],
      "name": "update_block_price",
      "outputs": [],
      "stateMutability": "nonpayable",
      "type": "function"
    },
    {
      "inputs": [
        {
          "internalType": "string",
          "name": "_url",
          "type": "string"
        },
        {
          "internalType": "uint256",
          "name": "_provider_id",
          "type": "uint256"
        }
      ],
      "name": "update_api_url",
      "outputs": [],
      "stateMutability": "nonpayable",
      "type": "function"
    },
    {
      "inputs": [
        {
          "internalType": "address",
          "name": "_new",
          "type": "address"
        },
        {
          "internalType": "uint256",
          "name": "_provider_id",
          "type": "uint256"
        }
      ],
      "name": "update_address",
      "outputs": [],
      "stateMutability": "nonpayable",
      "type": "function"
    },
    {
      "inputs": [
        {
          "internalType": "string",
          "name": "_new",
          "type": "string"
        },
        {
          "internalType": "uint256",
          "name": "_provider_id",
          "type": "uint256"
        }
      ],
      "name": "update_name",
      "outputs": [],
      "stateMutability": "nonpayable",
      "type": "function"
    },
    {
      "inputs": [
        {
          "internalType": "uint256",
          "name": "_provider_id",
          "type": "uint256"
        }
      ],
      "name": "get_per_block_price",
      "outputs": [
        {
          "internalType": "uint256",
          "name": "",
          "type": "uint256"
        }
      ],
      "stateMutability": "view",
      "type": "function",
      "constant": true
    },
    {
      "inputs": [
        {
          "internalType": "uint256",
          "name": "_provider_id",
          "type": "uint256"
        }
      ],
      "name": "get_provider_details",
      "outputs": [
        {
          "components": [
            {
              "internalType": "address",
              "name": "account",
              "type": "address"
            },
            {
              "internalType": "uint256",
              "name": "block_price",
              "type": "uint256"
            },
            {
              "internalType": "string",
              "name": "api_url",
              "type": "string"
            },
            {
              "internalType": "string",
              "name": "name",
              "type": "string"
            }
          ],
          "internalType": "struct IpfsManager.Provider",
          "name": "",
          "type": "tuple"
        }
      ],
      "stateMutability": "view",
      "type": "function",
      "constant": true
    },
    {
      "inputs": [],
      "name": "withdraw",
      "outputs": [],
      "stateMutability": "nonpayable",
      "type": "function"
    },
    {
      "inputs": [
        {
          "internalType": "uint24",
          "name": "_fee",
          "type": "uint24"
        },
        {
          "internalType": "uint24",
          "name": "_decimals",
          "type": "uint24"
        }
      ],
      "name": "update_dev_fee",
      "outputs": [],
      "stateMutability": "nonpayable",
      "type": "function"
    },
    {
      "inputs": [],
      "name": "get_dev_fee",
      "outputs": [
        {
          "internalType": "uint24",
          "name": "",
          "type": "uint24"
        },
        {
          "internalType": "uint24",
          "name": "",
          "type": "uint24"
        }
      ],
      "stateMutability": "view",
      "type": "function",
      "constant": true
    }
  ],
  "bytecode": "0x6080604052620186a0600460006101000a81548162ffffff021916908362ffffff1602179055506109c4600460036101000a81548162ffffff021916908362ffffff16021790555034801561005357600080fd5b5033600160006101000a81548173ffffffffffffffffffffffffffffffffffffffff021916908373ffffffffffffffffffffffffffffffffffffffff160217905550611fc2806100a46000396000f3fe6080604052600436106100c25760003560e01c80634f099f241161007f5780635edf389f116100595780635edf389f14610266578063be9b7cae1461028f578063d339e93a146102ab578063e5044e7d146102e8576100c2565b80634f099f24146101c2578063524d1400146101eb5780635d182b0414610229576100c2565b8063050d0c3b146100c757806330b67972146101045780633862781a1461012d57806338b4a1a31461015957806338f636ce146101825780633ccfd60b146101ab575b600080fd5b3480156100d357600080fd5b506100ee60048036038101906100e991906112b5565b610311565b6040516100fb91906112f1565b60405180910390f35b34801561011057600080fd5b5061012b6004803603810190610126919061130c565b610331565b005b34801561013957600080fd5b50610142610485565b60405161015092919061136a565b60405180910390f35b34801561016557600080fd5b50610180600480360381019061017b91906114d9565b6104b4565b005b34801561018e57600080fd5b506101a960048036038101906101a491906115c2565b610641565b005b3480156101b757600080fd5b506101c0610777565b005b3480156101ce57600080fd5b506101e960048036038101906101e4919061162e565b6108d8565b005b3480156101f757600080fd5b50610212600480360381019061020d919061130c565b6109aa565b60405161022092919061166e565b60405180910390f35b34801561023557600080fd5b50610250600480360381019061024b9190611697565b610a90565b60405161025d91906112f1565b60405180910390f35b34801561027257600080fd5b5061028d60048036038101906102889190611697565b610aca565b005b6102a960048036038101906102a491906116f3565b610bd6565b005b3480156102b757600080fd5b506102d260048036038101906102cd91906112b5565b610e67565b6040516102df9190611872565b60405180910390f35b3480156102f457600080fd5b5061030f600480360381019061030a9190611697565b611018565b005b600060036000838152602001908152602001600020600101549050919050565b6003600082815260200190815260200160002060000160009054906101000a900473ffffffffffffffffffffffffffffffffffffffff1673ffffffffffffffffffffffffffffffffffffffff163373ffffffffffffffffffffffffffffffffffffffff16146103d5576040517f08c379a00000000000000000000000000000000000000000000000000000000081526004016103cc906118f1565b60405180910390fd5b600460009054906101000a900462ffffff1662ffffff16821161042d576040517f08c379a00000000000000000000000000000000000000000000000000000000081526004016104249061195d565b60405180910390fd5b8160036000838152602001908152602001600020600101819055507fec1c064b3e0d42c77434c33e11e65c358db8b172b06b51f98471b218fd5c1a42818360405161047992919061166e565b60405180910390a15050565b600080600460039054906101000a900462ffffff16600460009054906101000a900462ffffff16915091509091565b600460009054906101000a900462ffffff1662ffffff16821161050c576040517f08c379a0000000000000000000000000000000000000000000000000000000008152600401610503906119c9565b60405180910390fd5b6105166000611124565b6000610522600061113a565b905060405180608001604052803373ffffffffffffffffffffffffffffffffffffffff168152602001848152602001858152602001838152506003600083815260200190815260200160002060008201518160000160006101000a81548173ffffffffffffffffffffffffffffffffffffffff021916908373ffffffffffffffffffffffffffffffffffffffff1602179055506020820151816001015560408201518160020190805190602001906105db92919061118a565b5060608201518160030190805190602001906105f892919061118a565b509050507f3231703dfff89e1e76cfe591574c3008b30800231eafb5ea75718eead624b1453382858786604051610633959493929190611a31565b60405180910390a150505050565b6003600082815260200190815260200160002060000160009054906101000a900473ffffffffffffffffffffffffffffffffffffffff1673ffffffffffffffffffffffffffffffffffffffff163373ffffffffffffffffffffffffffffffffffffffff16146106e5576040517f08c379a00000000000000000000000000000000000000000000000000000000081526004016106dc906118f1565b60405180910390fd5b816003600083815260200190815260200160002060000160006101000a81548173ffffffffffffffffffffffffffffffffffffffff021916908373ffffffffffffffffffffffffffffffffffffffff1602179055507f1fc6b216311f9fa89ad93d031e4469f4d01392619b996ecb92414f13f300d67a818360405161076b929190611a92565b60405180910390a15050565b600160009054906101000a900473ffffffffffffffffffffffffffffffffffffffff1673ffffffffffffffffffffffffffffffffffffffff163373ffffffffffffffffffffffffffffffffffffffff1614610807576040517f08c379a00000000000000000000000000000000000000000000000000000000081526004016107fe90611b07565b60405180910390fd5b6000600160009054906101000a900473ffffffffffffffffffffffffffffffffffffffff1673ffffffffffffffffffffffffffffffffffffffff164760405161084f90611b58565b60006040518083038185875af1925050503d806000811461088c576040519150601f19603f3d011682016040523d82523d6000602084013e610891565b606091505b50509050806108d5576040517f08c379a00000000000000000000000000000000000000000000000000000000081526004016108cc90611bb9565b60405180910390fd5b50565b600160009054906101000a900473ffffffffffffffffffffffffffffffffffffffff1673ffffffffffffffffffffffffffffffffffffffff163373ffffffffffffffffffffffffffffffffffffffff1614610968576040517f08c379a000000000000000000000000000000000000000000000000000000000815260040161095f90611b07565b60405180910390fd5b81600460036101000a81548162ffffff021916908362ffffff16021790555080600460006101000a81548162ffffff021916908362ffffff1602179055505050565b60008060006109d860036000868152602001908152602001600020600101548661114890919063ffffffff16565b9050600460009054906101000a900462ffffff1662ffffff168111610a32576040517f08c379a0000000000000000000000000000000000000000000000000000000008152600401610a2990611c25565b60405180910390fd5b80610a84600460009054906101000a900462ffffff1662ffffff16610a76600460039054906101000a900462ffffff1662ffffff168561114890919063ffffffff16565b61115e90919063ffffffff16565b92509250509250929050565b6000600283604051610aa29190611c81565b9081526020016040518091039020600083815260200190815260200160002054905092915050565b6003600082815260200190815260200160002060000160009054906101000a900473ffffffffffffffffffffffffffffffffffffffff1673ffffffffffffffffffffffffffffffffffffffff163373ffffffffffffffffffffffffffffffffffffffff1614610b6e576040517f08c379a0000000000000000000000000000000000000000000000000000000008152600401610b65906118f1565b60405180910390fd5b81600360008381526020019081526020016000206002019080519060200190610b9892919061118a565b507fbfb222ebe969b2a40aca8653b2b26bce1449b640a08dd46cead3a46357af5bb38183604051610bca929190611c98565b60405180910390a15050565b60008211610c19576040517f08c379a0000000000000000000000000000000000000000000000000000000008152600401610c1090611d14565b60405180910390fd5b600080610c2684846109aa565b91509150610c3d818361117490919063ffffffff16565b341015610c4957600080fd5b60006003600085815260200190815260200160002060000160009054906101000a900473ffffffffffffffffffffffffffffffffffffffff1673ffffffffffffffffffffffffffffffffffffffff1683604051610ca590611b58565b60006040518083038185875af1925050503d8060008114610ce2576040519150601f19603f3d011682016040523d82523d6000602084013e610ce7565b606091505b5050905080610d2b576040517f08c379a0000000000000000000000000000000000000000000000000000000008152600401610d2290611d80565b60405180910390fd5b600043905080600288604051610d419190611c81565b90815260200160405180910390206000878152602001908152602001600020541115610db25785600288604051610d789190611c81565b908152602001604051809103902060008781526020019081526020016000206000828254610da69190611dcf565b92505081905550610df2565b8581610dbe9190611dcf565b600288604051610dce9190611c81565b90815260200160405180910390206000878152602001908152602001600020819055505b7f8eeea39f88e876c5e3b819810106e7b58d37a3737f2d9771989186d16aeac60733600289604051610e249190611c81565b9081526020016040518091039020600088815260200190815260200160002054878a604051610e569493929190611e25565b60405180910390a150505050505050565b610e6f611210565b600360008381526020019081526020016000206040518060800160405290816000820160009054906101000a900473ffffffffffffffffffffffffffffffffffffffff1673ffffffffffffffffffffffffffffffffffffffff1673ffffffffffffffffffffffffffffffffffffffff16815260200160018201548152602001600282018054610efd90611ea0565b80601f0160208091040260200160405190810160405280929190818152602001828054610f2990611ea0565b8015610f765780601f10610f4b57610100808354040283529160200191610f76565b820191906000526020600020905b815481529060010190602001808311610f5957829003601f168201915b50505050508152602001600382018054610f8f90611ea0565b80601f0160208091040260200160405190810160405280929190818152602001828054610fbb90611ea0565b80156110085780601f10610fdd57610100808354040283529160200191611008565b820191906000526020600020905b815481529060010190602001808311610feb57829003601f168201915b5050505050815250509050919050565b6003600082815260200190815260200160002060000160009054906101000a900473ffffffffffffffffffffffffffffffffffffffff1673ffffffffffffffffffffffffffffffffffffffff163373ffffffffffffffffffffffffffffffffffffffff16146110bc576040517f08c379a00000000000000000000000000000000000000000000000000000000081526004016110b3906118f1565b60405180910390fd5b816003600083815260200190815260200160002060030190805190602001906110e692919061118a565b507f48b0782b70f733764defb955380e89153fb21e6b639ed68c4bbb5079e096eabf8183604051611118929190611c98565b60405180910390a15050565b6001816000016000828254019250508190555050565b600081600001549050919050565b600081836111569190611ed2565b905092915050565b6000818361116c9190611f5b565b905092915050565b600081836111829190611dcf565b905092915050565b82805461119690611ea0565b90600052602060002090601f0160209004810192826111b857600085556111ff565b82601f106111d157805160ff19168380011785556111ff565b828001600101855582156111ff579182015b828111156111fe5782518255916020019190600101906111e3565b5b50905061120c919061124e565b5090565b6040518060800160405280600073ffffffffffffffffffffffffffffffffffffffff1681526020016000815260200160608152602001606081525090565b5b8082111561126757600081600090555060010161124f565b5090565b6000604051905090565b600080fd5b600080fd5b6000819050919050565b6112928161127f565b811461129d57600080fd5b50565b6000813590506112af81611289565b92915050565b6000602082840312156112cb576112ca611275565b5b60006112d9848285016112a0565b91505092915050565b6112eb8161127f565b82525050565b600060208201905061130660008301846112e2565b92915050565b6000806040838503121561132357611322611275565b5b6000611331858286016112a0565b9250506020611342858286016112a0565b9150509250929050565b600062ffffff82169050919050565b6113648161134c565b82525050565b600060408201905061137f600083018561135b565b61138c602083018461135b565b9392505050565b600080fd5b600080fd5b6000601f19601f8301169050919050565b7f4e487b7100000000000000000000000000000000000000000000000000000000600052604160045260246000fd5b6113e68261139d565b810181811067ffffffffffffffff82111715611405576114046113ae565b5b80604052505050565b600061141861126b565b905061142482826113dd565b919050565b600067ffffffffffffffff821115611444576114436113ae565b5b61144d8261139d565b9050602081019050919050565b82818337600083830152505050565b600061147c61147784611429565b61140e565b90508281526020810184848401111561149857611497611398565b5b6114a384828561145a565b509392505050565b600082601f8301126114c0576114bf611393565b5b81356114d0848260208601611469565b91505092915050565b6000806000606084860312156114f2576114f1611275565b5b600084013567ffffffffffffffff8111156115105761150f61127a565b5b61151c868287016114ab565b935050602061152d868287016112a0565b925050604084013567ffffffffffffffff81111561154e5761154d61127a565b5b61155a868287016114ab565b9150509250925092565b600073ffffffffffffffffffffffffffffffffffffffff82169050919050565b600061158f82611564565b9050919050565b61159f81611584565b81146115aa57600080fd5b50565b6000813590506115bc81611596565b92915050565b600080604083850312156115d9576115d8611275565b5b60006115e7858286016115ad565b92505060206115f8858286016112a0565b9150509250929050565b61160b8161134c565b811461161657600080fd5b50565b60008135905061162881611602565b92915050565b6000806040838503121561164557611644611275565b5b600061165385828601611619565b925050602061166485828601611619565b9150509250929050565b600060408201905061168360008301856112e2565b61169060208301846112e2565b9392505050565b600080604083850312156116ae576116ad611275565b5b600083013567ffffffffffffffff8111156116cc576116cb61127a565b5b6116d8858286016114ab565b92505060206116e9858286016112a0565b9150509250929050565b60008060006060848603121561170c5761170b611275565b5b600084013567ffffffffffffffff81111561172a5761172961127a565b5b611736868287016114ab565b9350506020611747868287016112a0565b9250506040611758868287016112a0565b9150509250925092565b61176b81611584565b82525050565b61177a8161127f565b82525050565b600081519050919050565b600082825260208201905092915050565b60005b838110156117ba57808201518184015260208101905061179f565b838111156117c9576000848401525b50505050565b60006117da82611780565b6117e4818561178b565b93506117f481856020860161179c565b6117fd8161139d565b840191505092915050565b60006080830160008301516118206000860182611762565b5060208301516118336020860182611771565b506040830151848203604086015261184b82826117cf565b9150506060830151848203606086015261186582826117cf565b9150508091505092915050565b6000602082019050818103600083015261188c8184611808565b905092915050565b600082825260208201905092915050565b7f77726f6e67206164647265737300000000000000000000000000000000000000600082015250565b60006118db600d83611894565b91506118e6826118a5565b602082019050919050565b6000602082019050818103600083015261190a816118ce565b9050919050565b7f626c6f636b207072696365203c3d203130303030300000000000000000000000600082015250565b6000611947601583611894565b915061195282611911565b602082019050919050565b600060208201905081810360008301526119768161193a565b9050919050565b7f626c6f636b207072696365203c3d20646563696d616c73000000000000000000600082015250565b60006119b3601783611894565b91506119be8261197d565b602082019050919050565b600060208201905081810360008301526119e2816119a6565b9050919050565b6119f281611584565b82525050565b6000611a0382611780565b611a0d8185611894565b9350611a1d81856020860161179c565b611a268161139d565b840191505092915050565b600060a082019050611a4660008301886119e9565b611a5360208301876112e2565b611a6060408301866112e2565b8181036060830152611a7281856119f8565b90508181036080830152611a8681846119f8565b90509695505050505050565b6000604082019050611aa760008301856112e2565b611ab460208301846119e9565b9392505050565b7f4e6f7420746865206465706c6f79657200000000000000000000000000000000600082015250565b6000611af1601083611894565b9150611afc82611abb565b602082019050919050565b60006020820190508181036000830152611b2081611ae4565b9050919050565b600081905092915050565b50565b6000611b42600083611b27565b9150611b4d82611b32565b600082019050919050565b6000611b6382611b35565b9150819050919050565b7f4661696c656420746f2077697468647261772062616c616e6365000000000000600082015250565b6000611ba3601a83611894565b9150611bae82611b6d565b602082019050919050565b60006020820190508181036000830152611bd281611b96565b9050919050565b7f746f74616c3c3130303030300000000000000000000000000000000000000000600082015250565b6000611c0f600c83611894565b9150611c1a82611bd9565b602082019050919050565b60006020820190508181036000830152611c3e81611c02565b9050919050565b600081905092915050565b6000611c5b82611780565b611c658185611c45565b9350611c7581856020860161179c565b80840191505092915050565b6000611c8d8284611c50565b915081905092915050565b6000604082019050611cad60008301856112e2565b8181036020830152611cbf81846119f8565b90509392505050565b7f626c6f636b733d30000000000000000000000000000000000000000000000000600082015250565b6000611cfe600883611894565b9150611d0982611cc8565b602082019050919050565b60006020820190508181036000830152611d2d81611cf1565b9050919050565b7f4661696c656420746f2073656e642070726f7669646572206665650000000000600082015250565b6000611d6a601b83611894565b9150611d7582611d34565b602082019050919050565b60006020820190508181036000830152611d9981611d5d565b9050919050565b7f4e487b7100000000000000000000000000000000000000000000000000000000600052601160045260246000fd5b6000611dda8261127f565b9150611de58361127f565b9250827fffffffffffffffffffffffffffffffffffffffffffffffffffffffffffffffff03821115611e1a57611e19611da0565b5b828201905092915050565b6000608082019050611e3a60008301876119e9565b611e4760208301866112e2565b611e5460408301856112e2565b8181036060830152611e6681846119f8565b905095945050505050565b7f4e487b7100000000000000000000000000000000000000000000000000000000600052602260045260246000fd5b60006002820490506001821680611eb857607f821691505b60208210811415611ecc57611ecb611e71565b5b50919050565b6000611edd8261127f565b9150611ee88361127f565b9250817fffffffffffffffffffffffffffffffffffffffffffffffffffffffffffffffff0483118215151615611f2157611f20611da0565b5b828202905092915050565b7f4e487b7100000000000000000000000000000000000000000000000000000000600052601260045260246000fd5b6000611f668261127f565b9150611f718361127f565b925082611f8157611f80611f2c565b5b82820490509291505056fea2646970667358221220af705c9259b1235bd989968b29ac5bd8d988ba3b75df06021e22ccf84240714864736f6c634300080b0033",
  "immutableReferences": {},
  "source": "// SPDX-License-Identifier: GPL-3.0\npragma solidity >=0.8.0 <0.9.0;\n\nimport \"@openzeppelin/contracts/utils/math/SafeMath.sol\";\nimport \"@openzeppelin/contracts/utils/Counters.sol\";\n\ncontract IpfsManager {\n  using SafeMath for uint256;\n  using Counters for Counters.Counter;\n  Counters.Counter private providers_id;\n\n  struct Provider{\n    address account;\n    uint256 block_price;\n    string api_url;\n    string name;\n  }\n\n  address private deployer;\n  mapping(string=>mapping(uint256=>uint256)) private cid_valid_block;\n  mapping(uint256=>Provider) private service_providers; // addresses to pay to for pinning services\n  // uint256 private per_block_price = 100*1e9; // 100 Gwei\n  uint24 decimals = 100000;\n  uint24 developer_fee = 2500; //2.5%\n\n  event UpdateValidBlock(address donor, uint256 end_block, uint256 provider_id, string cid);\n  event AddProvider(address creator, uint256 id, uint256 block_price, string api_url, string name);\n  event UpdateProviderBlockPrice(uint256 id, uint256 price);\n  event UpdateProviderApiUrl(uint256 id, string url);\n  event UpdateProviderAddress(uint256 id, address account);\n  event UpdateProviderName(uint256 id, string name);\n\n  modifier onlyOwner() {\n        require(msg.sender == deployer, \"Not the deployer\");\n        _;\n    }\n\n  function add_pinning_service(string memory _api_url, uint256 _block_price, string memory _name) public{\n    require(_block_price>decimals, \"block price <= decimals\");\n    providers_id.increment();\n    uint256 id = providers_id.current();\n    service_providers[id] = Provider(msg.sender, _block_price, _api_url, _name);\n    emit AddProvider(msg.sender, id, _block_price, _api_url, _name);\n  }\n\n  function add_new_valid_block(string memory _cid, uint256 _num_blocks, uint256 _provider_id) public payable{\n    require(_num_blocks>0, \"blocks=0\");\n    (uint256 total_price, uint256 fee) = get_total_price_for_blocks(_num_blocks, _provider_id);\n    require(msg.value>=total_price.add(fee));\n     \n    (bool success_provider,) = service_providers[_provider_id].account.call{value: total_price}(\"\");\n    require(success_provider, \"Failed to send provider fee\");\n    \n    uint curBlock = block.number;\n    if(cid_valid_block[_cid][_provider_id]>curBlock){\n      cid_valid_block[_cid][_provider_id] += _num_blocks; \n    }else{\n      cid_valid_block[_cid][_provider_id] = curBlock+_num_blocks;\n    } \n    \n    emit UpdateValidBlock(msg.sender, cid_valid_block[_cid][_provider_id], _provider_id, _cid);\n  }\n\n  function get_valid_block(string memory _cid, uint256 _provider_id) public view returns(uint256){\n    return cid_valid_block[_cid][_provider_id];\n  }\n\n  function get_total_price_for_blocks(uint256 _blocks, uint256 _provider_id) public view returns(uint256, uint256){\n    uint256 price_for_blocks = _blocks.mul(service_providers[_provider_id].block_price);\n    require(price_for_blocks>decimals, \"total<100000\");\n    return (price_for_blocks,  price_for_blocks.mul(developer_fee).div(decimals));\n  }\n\n  function update_block_price(uint256 _price_wei, uint256 _provider_id) public{\n    require(msg.sender==service_providers[_provider_id].account, \"wrong address\");\n    require(_price_wei>decimals, \"block price <= 100000\");\n    service_providers[_provider_id].block_price = _price_wei;\n    emit UpdateProviderBlockPrice(_provider_id, _price_wei);\n  }\n\n  function update_api_url(string memory _url, uint256 _provider_id) public{\n    require(msg.sender==service_providers[_provider_id].account, \"wrong address\");\n    service_providers[_provider_id].api_url = _url;\n    emit UpdateProviderApiUrl(_provider_id, _url);\n  }\n\n  function update_address(address _new, uint256 _provider_id) public{\n    require(msg.sender==service_providers[_provider_id].account, \"wrong address\");\n    service_providers[_provider_id].account = _new;\n    emit UpdateProviderAddress(_provider_id, _new);\n  }\n\n  function update_name(string memory _new, uint256 _provider_id) public{\n    require(msg.sender==service_providers[_provider_id].account, \"wrong address\");\n    service_providers[_provider_id].name = _new;\n    emit UpdateProviderName(_provider_id, _new);\n  }\n\n  function get_per_block_price(uint256 _provider_id) public view returns(uint256){\n    return service_providers[_provider_id].block_price;\n  }\n\n  function get_provider_details(uint256 _provider_id) public view returns(Provider memory){\n    return service_providers[_provider_id];\n  }\n\n  function withdraw() public onlyOwner{\n        // send all Ether to deployer\n        (bool success,) = deployer.call{value: address(this).balance}(\"\");\n        require(success, \"Failed to withdraw balance\");\n  }\n\n  function update_dev_fee(uint24 _fee, uint24 _decimals) public onlyOwner{\n    developer_fee = _fee;\n    decimals = _decimals;\n  }\n  \n  function get_dev_fee() public view returns(uint24, uint24){\n    return (developer_fee, decimals);\n  }\n\n  constructor() {\n    deployer = msg.sender;\n  }\n}\n",
  "sourcePath": "/home/beast/Documents/Projects/anspar/anspar-ipfs/ipfs-manager/contracts/ipfsManager.sol",
  "compiler": {
    "name": "solc",
    "version": "0.8.11+commit.d7f03943.Emscripten.clang"
  },
  "schemaVersion": "3.4.3",
  "updatedAt": "2022-02-08T14:46:01.230Z",
  "networkType": "ethereum",
  "devdoc": {
    "kind": "dev",
    "methods": {},
    "version": 1
  },
  "userdoc": {
    "kind": "user",
    "methods": {},
    "version": 1
  }
}