{
  "contractName": "IpfsManager",
  "abi": [
    {
      "inputs": [],
      "stateMutability": "nonpayable",
      "type": "constructor"
    },
    {
      "anonymous": false,
      "inputs": [
        {
          "indexed": false,
          "internalType": "address",
          "name": "donor",
          "type": "address"
        },
        {
          "indexed": false,
          "internalType": "uint256",
          "name": "update_block",
          "type": "uint256"
        },
        {
          "indexed": false,
          "internalType": "uint256",
          "name": "end_block",
          "type": "uint256"
        },
        {
          "indexed": false,
          "internalType": "uint256",
          "name": "block_price",
          "type": "uint256"
        },
        {
          "indexed": false,
          "internalType": "string",
          "name": "cid",
          "type": "string"
        }
      ],
      "name": "UpdateValidBlock",
      "type": "event"
    },
    {
      "inputs": [
        {
          "internalType": "string",
          "name": "_cid",
          "type": "string"
        }
      ],
      "name": "add_new_valid_block",
      "outputs": [],
      "stateMutability": "payable",
      "type": "function",
      "payable": true
    },
    {
      "inputs": [
        {
          "internalType": "string",
          "name": "_cid",
          "type": "string"
        }
      ],
      "name": "get_valid_block",
      "outputs": [
        {
          "internalType": "uint256",
          "name": "",
          "type": "uint256"
        }
      ],
      "stateMutability": "view",
      "type": "function",
      "constant": true
    },
    {
      "inputs": [
        {
          "internalType": "uint256",
          "name": "_price_wei",
          "type": "uint256"
        }
      ],
      "name": "get_num_of_valid_blocks",
      "outputs": [
        {
          "internalType": "uint256",
          "name": "",
          "type": "uint256"
        }
      ],
      "stateMutability": "view",
      "type": "function",
      "constant": true
    },
    {
      "inputs": [
        {
          "internalType": "uint256",
          "name": "_price_wei",
          "type": "uint256"
        }
      ],
      "name": "update_per_block_price",
      "outputs": [],
      "stateMutability": "nonpayable",
      "type": "function"
    },
    {
      "inputs": [],
      "name": "get_per_block_price",
      "outputs": [
        {
          "internalType": "uint256",
          "name": "",
          "type": "uint256"
        }
      ],
      "stateMutability": "view",
      "type": "function",
      "constant": true
    },
    {
      "inputs": [],
      "name": "withdraw",
      "outputs": [],
      "stateMutability": "nonpayable",
      "type": "function"
    }
  ],
  "bytecode": "0x608060405264174876e80060025534801561001957600080fd5b50336000806101000a81548173ffffffffffffffffffffffffffffffffffffffff021916908373ffffffffffffffffffffffffffffffffffffffff160217905550610ab9806100696000396000f3fe6080604052600436106100555760003560e01c80631490d53d1461005a5780633412dcf9146100835780633ccfd60b1461009f5780634b0f2cfd146100b65780634d5c7fde146100f3578063e9c1d20b1461011e575b600080fd5b34801561006657600080fd5b50610081600480360381019061007c91906104b8565b61015b565b005b61009d6004803603810190610098919061062b565b610165565b005b3480156100ab57600080fd5b506100b46102ad565b005b3480156100c257600080fd5b506100dd60048036038101906100d891906104b8565b610411565b6040516100ea9190610683565b60405180910390f35b3480156100ff57600080fd5b5061010861043c565b6040516101159190610683565b60405180910390f35b34801561012a57600080fd5b506101456004803603810190610140919061062b565b610446565b6040516101529190610683565b60405180910390f35b8060028190555050565b600061017034610411565b9050600081116101b5576040517f08c379a00000000000000000000000000000000000000000000000000000000081526004016101ac906106fb565b60405180910390fd5b6000439050806001846040516101cb9190610795565b908152602001604051809103902054111561021a57816001846040516101f19190610795565b9081526020016040518091039020600082825461020e91906107db565b92505081905550610249565b818161022691906107db565b6001846040516102369190610795565b9081526020016040518091039020819055505b7f479601a00131a360d7034f020cab686c9f124afc17905e6f9ba7e00259ba4047338260018660405161027c9190610795565b908152602001604051809103902054600254876040516102a09594939291906108ab565b60405180910390a1505050565b60008054906101000a900473ffffffffffffffffffffffffffffffffffffffff1673ffffffffffffffffffffffffffffffffffffffff163373ffffffffffffffffffffffffffffffffffffffff161461033b576040517f08c379a000000000000000000000000000000000000000000000000000000000815260040161033290610951565b60405180910390fd5b600047905060008060009054906101000a900473ffffffffffffffffffffffffffffffffffffffff1673ffffffffffffffffffffffffffffffffffffffff1682604051610387906109a2565b60006040518083038185875af1925050503d80600081146103c4576040519150601f19603f3d011682016040523d82523d6000602084013e6103c9565b606091505b505090508061040d576040517f08c379a000000000000000000000000000000000000000000000000000000000815260040161040490610a03565b60405180910390fd5b5050565b60006002548210156104265760009050610437565b600254826104349190610a52565b90505b919050565b6000600254905090565b60006001826040516104589190610795565b9081526020016040518091039020549050919050565b6000604051905090565b600080fd5b600080fd5b6000819050919050565b61049581610482565b81146104a057600080fd5b50565b6000813590506104b28161048c565b92915050565b6000602082840312156104ce576104cd610478565b5b60006104dc848285016104a3565b91505092915050565b600080fd5b600080fd5b6000601f19601f8301169050919050565b7f4e487b7100000000000000000000000000000000000000000000000000000000600052604160045260246000fd5b610538826104ef565b810181811067ffffffffffffffff8211171561055757610556610500565b5b80604052505050565b600061056a61046e565b9050610576828261052f565b919050565b600067ffffffffffffffff82111561059657610595610500565b5b61059f826104ef565b9050602081019050919050565b82818337600083830152505050565b60006105ce6105c98461057b565b610560565b9050828152602081018484840111156105ea576105e96104ea565b5b6105f58482856105ac565b509392505050565b600082601f830112610612576106116104e5565b5b81356106228482602086016105bb565b91505092915050565b60006020828403121561064157610640610478565b5b600082013567ffffffffffffffff81111561065f5761065e61047d565b5b61066b848285016105fd565b91505092915050565b61067d81610482565b82525050565b60006020820190506106986000830184610674565b92915050565b600082825260208201905092915050565b7f6e6f7420656e6f756768742066756e6473000000000000000000000000000000600082015250565b60006106e560118361069e565b91506106f0826106af565b602082019050919050565b60006020820190508181036000830152610714816106d8565b9050919050565b600081519050919050565b600081905092915050565b60005b8381101561074f578082015181840152602081019050610734565b8381111561075e576000848401525b50505050565b600061076f8261071b565b6107798185610726565b9350610789818560208601610731565b80840191505092915050565b60006107a18284610764565b915081905092915050565b7f4e487b7100000000000000000000000000000000000000000000000000000000600052601160045260246000fd5b60006107e682610482565b91506107f183610482565b9250827fffffffffffffffffffffffffffffffffffffffffffffffffffffffffffffffff03821115610826576108256107ac565b5b828201905092915050565b600073ffffffffffffffffffffffffffffffffffffffff82169050919050565b600061085c82610831565b9050919050565b61086c81610851565b82525050565b600061087d8261071b565b610887818561069e565b9350610897818560208601610731565b6108a0816104ef565b840191505092915050565b600060a0820190506108c06000830188610863565b6108cd6020830187610674565b6108da6040830186610674565b6108e76060830185610674565b81810360808301526108f98184610872565b90509695505050505050565b7f4e6f7420746865206465706c6f79657200000000000000000000000000000000600082015250565b600061093b60108361069e565b915061094682610905565b602082019050919050565b6000602082019050818103600083015261096a8161092e565b9050919050565b600081905092915050565b50565b600061098c600083610971565b91506109978261097c565b600082019050919050565b60006109ad8261097f565b9150819050919050565b7f4661696c656420746f2077697468647261772062616c616e6365000000000000600082015250565b60006109ed601a8361069e565b91506109f8826109b7565b602082019050919050565b60006020820190508181036000830152610a1c816109e0565b9050919050565b7f4e487b7100000000000000000000000000000000000000000000000000000000600052601260045260246000fd5b6000610a5d82610482565b9150610a6883610482565b925082610a7857610a77610a23565b5b82820490509291505056fea26469706673582212200d34840f8bdb8ae51edea9d34f5b870aef5c440e8ce485dc1236ca9d1ff429cd64736f6c634300080b0033",
  "immutableReferences": {},
  "source": "// SPDX-License-Identifier: GPL-3.0\npragma solidity >=0.8.0 <0.9.0;\n\ncontract IpfsManager {\n\n  address private deployer;\n  mapping(string=>uint256) private cid_valid_block;\n  uint256 private per_block_price = 100*1e9; // 100 Gwei\n\n  event UpdateValidBlock(address donor, uint256 update_block, uint256 end_block, uint256 block_price, string cid);\n\n  modifier onlyOwner() {\n        require(msg.sender == deployer, \"Not the deployer\");\n        _;\n    }\n\n  function add_new_valid_block(string memory _cid) public payable{\n    uint256 num_blocks = get_num_of_valid_blocks(msg.value);\n    require(num_blocks>0, \"not enought funds\");\n    uint curBlock = block.number;\n    if(cid_valid_block[_cid]>curBlock){\n      cid_valid_block[_cid] += num_blocks; \n    }else{\n      cid_valid_block[_cid] = curBlock+num_blocks;\n    } \n    emit UpdateValidBlock(msg.sender, curBlock, cid_valid_block[_cid], per_block_price, _cid);\n  }\n\n  function get_valid_block(string memory _cid) public view returns(uint256){\n    return cid_valid_block[_cid];\n  }\n\n  function get_num_of_valid_blocks(uint256 _price_wei) public view returns(uint256){\n    if (_price_wei<per_block_price) return 0;\n    return _price_wei/per_block_price;\n  }\n\n  function update_per_block_price(uint256 _price_wei) public{\n    per_block_price = _price_wei;\n  }\n\n  function get_per_block_price() public view returns(uint256){\n    return per_block_price;\n  }\n\n  function withdraw() public onlyOwner{\n        // get the amount of Ether stored in this contract\n        uint amount = address(this).balance;\n\n        // send all Ether to deployer\n        (bool success,) = deployer.call{value: amount}(\"\");\n        require(success, \"Failed to withdraw balance\");\n    }\n  \n  constructor() {\n    deployer = msg.sender;\n  }\n}\n",
  "sourcePath": "/home/beast/Documents/Projects/anspar/anspar-ipfs/ipfs-manager/contracts/ipfsManager.sol",
  "compiler": {
    "name": "solc",
    "version": "0.8.11+commit.d7f03943.Emscripten.clang"
  },
  "schemaVersion": "3.4.3",
  "updatedAt": "2022-01-03T16:28:08.998Z",
  "networkType": "ethereum",
  "devdoc": {
    "kind": "dev",
    "methods": {},
    "version": 1
  },
  "userdoc": {
    "kind": "user",
    "methods": {},
    "version": 1
  }
}