{
  "contractName": "IpfsManager",
  "abi": [
    {
      "inputs": [],
      "stateMutability": "nonpayable",
      "type": "constructor"
    },
    {
      "anonymous": false,
      "inputs": [
        {
          "indexed": false,
          "internalType": "address",
          "name": "creator",
          "type": "address"
        },
        {
          "indexed": false,
          "internalType": "uint256",
          "name": "id",
          "type": "uint256"
        },
        {
          "indexed": false,
          "internalType": "uint256",
          "name": "block_price",
          "type": "uint256"
        },
        {
          "indexed": false,
          "internalType": "string",
          "name": "api_url",
          "type": "string"
        },
        {
          "indexed": false,
          "internalType": "string",
          "name": "name",
          "type": "string"
        }
      ],
      "name": "AddProvider",
      "type": "event"
    },
    {
      "anonymous": false,
      "inputs": [
        {
          "indexed": false,
          "internalType": "uint256",
          "name": "id",
          "type": "uint256"
        },
        {
          "indexed": false,
          "internalType": "address",
          "name": "account",
          "type": "address"
        }
      ],
      "name": "UpdateProviderAddress",
      "type": "event"
    },
    {
      "anonymous": false,
      "inputs": [
        {
          "indexed": false,
          "internalType": "uint256",
          "name": "id",
          "type": "uint256"
        },
        {
          "indexed": false,
          "internalType": "string",
          "name": "url",
          "type": "string"
        }
      ],
      "name": "UpdateProviderApiUrl",
      "type": "event"
    },
    {
      "anonymous": false,
      "inputs": [
        {
          "indexed": false,
          "internalType": "uint256",
          "name": "id",
          "type": "uint256"
        },
        {
          "indexed": false,
          "internalType": "uint256",
          "name": "price",
          "type": "uint256"
        }
      ],
      "name": "UpdateProviderBlockPrice",
      "type": "event"
    },
    {
      "anonymous": false,
      "inputs": [
        {
          "indexed": false,
          "internalType": "uint256",
          "name": "id",
          "type": "uint256"
        },
        {
          "indexed": false,
          "internalType": "string",
          "name": "name",
          "type": "string"
        }
      ],
      "name": "UpdateProviderName",
      "type": "event"
    },
    {
      "anonymous": false,
      "inputs": [
        {
          "indexed": false,
          "internalType": "address",
          "name": "donor",
          "type": "address"
        },
        {
          "indexed": false,
          "internalType": "uint256",
          "name": "end_block",
          "type": "uint256"
        },
        {
          "indexed": false,
          "internalType": "uint256",
          "name": "provider_id",
          "type": "uint256"
        },
        {
          "indexed": false,
          "internalType": "string",
          "name": "cid",
          "type": "string"
        }
      ],
      "name": "UpdateValidBlock",
      "type": "event"
    },
    {
      "inputs": [
        {
          "internalType": "string",
          "name": "_api_url",
          "type": "string"
        },
        {
          "internalType": "uint256",
          "name": "_block_price",
          "type": "uint256"
        },
        {
          "internalType": "string",
          "name": "_name",
          "type": "string"
        }
      ],
      "name": "add_pinning_service",
      "outputs": [],
      "stateMutability": "payable",
      "type": "function",
      "payable": true
    },
    {
      "inputs": [
        {
          "internalType": "string",
          "name": "_cid",
          "type": "string"
        },
        {
          "internalType": "uint256",
          "name": "_num_blocks",
          "type": "uint256"
        },
        {
          "internalType": "uint256",
          "name": "_provider_id",
          "type": "uint256"
        }
      ],
      "name": "add_new_valid_block",
      "outputs": [],
      "stateMutability": "payable",
      "type": "function",
      "payable": true
    },
    {
      "inputs": [
        {
          "internalType": "string",
          "name": "_cid",
          "type": "string"
        },
        {
          "internalType": "uint256",
          "name": "_provider_id",
          "type": "uint256"
        }
      ],
      "name": "get_valid_block",
      "outputs": [
        {
          "internalType": "uint256",
          "name": "",
          "type": "uint256"
        }
      ],
      "stateMutability": "view",
      "type": "function",
      "constant": true
    },
    {
      "inputs": [
        {
          "internalType": "uint256",
          "name": "_blocks",
          "type": "uint256"
        },
        {
          "internalType": "uint256",
          "name": "_provider_id",
          "type": "uint256"
        }
      ],
      "name": "get_total_price_for_blocks",
      "outputs": [
        {
          "internalType": "uint256",
          "name": "",
          "type": "uint256"
        },
        {
          "internalType": "uint256",
          "name": "",
          "type": "uint256"
        }
      ],
      "stateMutability": "view",
      "type": "function",
      "constant": true
    },
    {
      "inputs": [
        {
          "internalType": "uint256",
          "name": "_price_wei",
          "type": "uint256"
        },
        {
          "internalType": "uint256",
          "name": "_provider_id",
          "type": "uint256"
        }
      ],
      "name": "update_block_price",
      "outputs": [],
      "stateMutability": "nonpayable",
      "type": "function"
    },
    {
      "inputs": [
        {
          "internalType": "string",
          "name": "_url",
          "type": "string"
        },
        {
          "internalType": "uint256",
          "name": "_provider_id",
          "type": "uint256"
        }
      ],
      "name": "update_api_url",
      "outputs": [],
      "stateMutability": "nonpayable",
      "type": "function"
    },
    {
      "inputs": [
        {
          "internalType": "address",
          "name": "_new",
          "type": "address"
        },
        {
          "internalType": "uint256",
          "name": "_provider_id",
          "type": "uint256"
        }
      ],
      "name": "update_address",
      "outputs": [],
      "stateMutability": "nonpayable",
      "type": "function"
    },
    {
      "inputs": [
        {
          "internalType": "string",
          "name": "_new",
          "type": "string"
        },
        {
          "internalType": "uint256",
          "name": "_provider_id",
          "type": "uint256"
        }
      ],
      "name": "update_name",
      "outputs": [],
      "stateMutability": "nonpayable",
      "type": "function"
    },
    {
      "inputs": [
        {
          "internalType": "uint256",
          "name": "_provider_id",
          "type": "uint256"
        }
      ],
      "name": "get_per_block_price",
      "outputs": [
        {
          "internalType": "uint256",
          "name": "",
          "type": "uint256"
        }
      ],
      "stateMutability": "view",
      "type": "function",
      "constant": true
    },
    {
      "inputs": [
        {
          "internalType": "uint256",
          "name": "_provider_id",
          "type": "uint256"
        }
      ],
      "name": "get_provider_details",
      "outputs": [
        {
          "components": [
            {
              "internalType": "address",
              "name": "account",
              "type": "address"
            },
            {
              "internalType": "uint256",
              "name": "block_price",
              "type": "uint256"
            },
            {
              "internalType": "string",
              "name": "api_url",
              "type": "string"
            },
            {
              "internalType": "string",
              "name": "name",
              "type": "string"
            }
          ],
          "internalType": "struct IpfsManager.Provider",
          "name": "",
          "type": "tuple"
        }
      ],
      "stateMutability": "view",
      "type": "function",
      "constant": true
    },
    {
      "inputs": [],
      "name": "withdraw",
      "outputs": [],
      "stateMutability": "nonpayable",
      "type": "function"
    },
    {
      "inputs": [
        {
          "internalType": "uint24",
          "name": "_fee",
          "type": "uint24"
        },
        {
          "internalType": "uint24",
          "name": "_decimals",
          "type": "uint24"
        }
      ],
      "name": "update_dev_fee",
      "outputs": [],
      "stateMutability": "nonpayable",
      "type": "function"
    },
    {
      "inputs": [],
      "name": "get_dev_fee",
      "outputs": [
        {
          "internalType": "uint24",
          "name": "",
          "type": "uint24"
        },
        {
          "internalType": "uint24",
          "name": "",
          "type": "uint24"
        }
      ],
      "stateMutability": "view",
      "type": "function",
      "constant": true
    },
    {
      "inputs": [
        {
          "internalType": "uint256",
          "name": "fee",
          "type": "uint256"
        }
      ],
      "name": "update_add_provider_fee",
      "outputs": [],
      "stateMutability": "nonpayable",
      "type": "function"
    },
    {
      "inputs": [],
      "name": "get_add_provider_fee",
      "outputs": [
        {
          "internalType": "uint256",
          "name": "",
          "type": "uint256"
        }
      ],
      "stateMutability": "view",
      "type": "function",
      "constant": true
    }
  ],
  "bytecode": "0x6080604052660110d9316ec000600455620186a0600560006101000a81548162ffffff021916908362ffffff1602179055506109c4600560036101000a81548162ffffff021916908362ffffff16021790555034801561005e57600080fd5b5033600160006101000a81548173ffffffffffffffffffffffffffffffffffffffff021916908373ffffffffffffffffffffffffffffffffffffffff160217905550612184806100af6000396000f3fe6080604052600436106100e85760003560e01c80634f099f241161008a57806392cfbcc81161005957806392cfbcc8146102d3578063be9b7cae146102fc578063d339e93a14610318578063e5044e7d14610355576100e8565b80634f099f2414610206578063524d14001461022f5780635d182b041461026d5780635edf389f146102aa576100e8565b806338b4a1a3116100c657806338b4a1a31461017f57806338f636ce1461019b5780633ccfd60b146101c45780634009d80d146101db576100e8565b8063050d0c3b146100ed57806330b679721461012a5780633862781a14610153575b600080fd5b3480156100f957600080fd5b50610114600480360381019061010f919061140b565b61037e565b6040516101219190611447565b60405180910390f35b34801561013657600080fd5b50610151600480360381019061014c9190611462565b61039e565b005b34801561015f57600080fd5b506101686104f2565b6040516101769291906114c0565b60405180910390f35b6101996004803603810190610194919061162f565b610521565b005b3480156101a757600080fd5b506101c260048036038101906101bd9190611718565b6106f3565b005b3480156101d057600080fd5b506101d9610829565b005b3480156101e757600080fd5b506101f061098a565b6040516101fd9190611447565b60405180910390f35b34801561021257600080fd5b5061022d60048036038101906102289190611784565b610994565b005b34801561023b57600080fd5b5061025660048036038101906102519190611462565b610a66565b6040516102649291906117c4565b60405180910390f35b34801561027957600080fd5b50610294600480360381019061028f91906117ed565b610b4c565b6040516102a19190611447565b60405180910390f35b3480156102b657600080fd5b506102d160048036038101906102cc91906117ed565b610b86565b005b3480156102df57600080fd5b506102fa60048036038101906102f5919061140b565b610c92565b005b61031660048036038101906103119190611849565b610d2c565b005b34801561032457600080fd5b5061033f600480360381019061033a919061140b565b610fbd565b60405161034c91906119c8565b60405180910390f35b34801561036157600080fd5b5061037c600480360381019061037791906117ed565b61116e565b005b600060036000838152602001908152602001600020600101549050919050565b6003600082815260200190815260200160002060000160009054906101000a900473ffffffffffffffffffffffffffffffffffffffff1673ffffffffffffffffffffffffffffffffffffffff163373ffffffffffffffffffffffffffffffffffffffff1614610442576040517f08c379a000000000000000000000000000000000000000000000000000000000815260040161043990611a47565b60405180910390fd5b600560009054906101000a900462ffffff1662ffffff16821161049a576040517f08c379a000000000000000000000000000000000000000000000000000000000815260040161049190611ab3565b60405180910390fd5b8160036000838152602001908152602001600020600101819055507fec1c064b3e0d42c77434c33e11e65c358db8b172b06b51f98471b218fd5c1a4281836040516104e69291906117c4565b60405180910390a15050565b600080600560039054906101000a900462ffffff16600560009054906101000a900462ffffff16915091509091565b600454341015610566576040517f08c379a000000000000000000000000000000000000000000000000000000000815260040161055d90611b1f565b60405180910390fd5b600560009054906101000a900462ffffff1662ffffff1682116105be576040517f08c379a00000000000000000000000000000000000000000000000000000000081526004016105b590611b8b565b60405180910390fd5b6105c8600061127a565b60006105d46000611290565b905060405180608001604052803373ffffffffffffffffffffffffffffffffffffffff168152602001848152602001858152602001838152506003600083815260200190815260200160002060008201518160000160006101000a81548173ffffffffffffffffffffffffffffffffffffffff021916908373ffffffffffffffffffffffffffffffffffffffff16021790555060208201518160010155604082015181600201908051906020019061068d9291906112e0565b5060608201518160030190805190602001906106aa9291906112e0565b509050507f3231703dfff89e1e76cfe591574c3008b30800231eafb5ea75718eead624b14533828587866040516106e5959493929190611bf3565b60405180910390a150505050565b6003600082815260200190815260200160002060000160009054906101000a900473ffffffffffffffffffffffffffffffffffffffff1673ffffffffffffffffffffffffffffffffffffffff163373ffffffffffffffffffffffffffffffffffffffff1614610797576040517f08c379a000000000000000000000000000000000000000000000000000000000815260040161078e90611a47565b60405180910390fd5b816003600083815260200190815260200160002060000160006101000a81548173ffffffffffffffffffffffffffffffffffffffff021916908373ffffffffffffffffffffffffffffffffffffffff1602179055507f1fc6b216311f9fa89ad93d031e4469f4d01392619b996ecb92414f13f300d67a818360405161081d929190611c54565b60405180910390a15050565b600160009054906101000a900473ffffffffffffffffffffffffffffffffffffffff1673ffffffffffffffffffffffffffffffffffffffff163373ffffffffffffffffffffffffffffffffffffffff16146108b9576040517f08c379a00000000000000000000000000000000000000000000000000000000081526004016108b090611cc9565b60405180910390fd5b6000600160009054906101000a900473ffffffffffffffffffffffffffffffffffffffff1673ffffffffffffffffffffffffffffffffffffffff164760405161090190611d1a565b60006040518083038185875af1925050503d806000811461093e576040519150601f19603f3d011682016040523d82523d6000602084013e610943565b606091505b5050905080610987576040517f08c379a000000000000000000000000000000000000000000000000000000000815260040161097e90611d7b565b60405180910390fd5b50565b6000600454905090565b600160009054906101000a900473ffffffffffffffffffffffffffffffffffffffff1673ffffffffffffffffffffffffffffffffffffffff163373ffffffffffffffffffffffffffffffffffffffff1614610a24576040517f08c379a0000000000000000000000000000000000000000000000000000000008152600401610a1b90611cc9565b60405180910390fd5b81600560036101000a81548162ffffff021916908362ffffff16021790555080600560006101000a81548162ffffff021916908362ffffff1602179055505050565b6000806000610a9460036000868152602001908152602001600020600101548661129e90919063ffffffff16565b9050600560009054906101000a900462ffffff1662ffffff168111610aee576040517f08c379a0000000000000000000000000000000000000000000000000000000008152600401610ae590611de7565b60405180910390fd5b80610b40600560009054906101000a900462ffffff1662ffffff16610b32600560039054906101000a900462ffffff1662ffffff168561129e90919063ffffffff16565b6112b490919063ffffffff16565b92509250509250929050565b6000600283604051610b5e9190611e43565b9081526020016040518091039020600083815260200190815260200160002054905092915050565b6003600082815260200190815260200160002060000160009054906101000a900473ffffffffffffffffffffffffffffffffffffffff1673ffffffffffffffffffffffffffffffffffffffff163373ffffffffffffffffffffffffffffffffffffffff1614610c2a576040517f08c379a0000000000000000000000000000000000000000000000000000000008152600401610c2190611a47565b60405180910390fd5b81600360008381526020019081526020016000206002019080519060200190610c549291906112e0565b507fbfb222ebe969b2a40aca8653b2b26bce1449b640a08dd46cead3a46357af5bb38183604051610c86929190611e5a565b60405180910390a15050565b600160009054906101000a900473ffffffffffffffffffffffffffffffffffffffff1673ffffffffffffffffffffffffffffffffffffffff163373ffffffffffffffffffffffffffffffffffffffff1614610d22576040517f08c379a0000000000000000000000000000000000000000000000000000000008152600401610d1990611cc9565b60405180910390fd5b8060048190555050565b60008211610d6f576040517f08c379a0000000000000000000000000000000000000000000000000000000008152600401610d6690611ed6565b60405180910390fd5b600080610d7c8484610a66565b91509150610d9381836112ca90919063ffffffff16565b341015610d9f57600080fd5b60006003600085815260200190815260200160002060000160009054906101000a900473ffffffffffffffffffffffffffffffffffffffff1673ffffffffffffffffffffffffffffffffffffffff1683604051610dfb90611d1a565b60006040518083038185875af1925050503d8060008114610e38576040519150601f19603f3d011682016040523d82523d6000602084013e610e3d565b606091505b5050905080610e81576040517f08c379a0000000000000000000000000000000000000000000000000000000008152600401610e7890611f42565b60405180910390fd5b600043905080600288604051610e979190611e43565b90815260200160405180910390206000878152602001908152602001600020541115610f085785600288604051610ece9190611e43565b908152602001604051809103902060008781526020019081526020016000206000828254610efc9190611f91565b92505081905550610f48565b8581610f149190611f91565b600288604051610f249190611e43565b90815260200160405180910390206000878152602001908152602001600020819055505b7f8eeea39f88e876c5e3b819810106e7b58d37a3737f2d9771989186d16aeac60733600289604051610f7a9190611e43565b9081526020016040518091039020600088815260200190815260200160002054878a604051610fac9493929190611fe7565b60405180910390a150505050505050565b610fc5611366565b600360008381526020019081526020016000206040518060800160405290816000820160009054906101000a900473ffffffffffffffffffffffffffffffffffffffff1673ffffffffffffffffffffffffffffffffffffffff1673ffffffffffffffffffffffffffffffffffffffff1681526020016001820154815260200160028201805461105390612062565b80601f016020809104026020016040519081016040528092919081815260200182805461107f90612062565b80156110cc5780601f106110a1576101008083540402835291602001916110cc565b820191906000526020600020905b8154815290600101906020018083116110af57829003601f168201915b505050505081526020016003820180546110e590612062565b80601f016020809104026020016040519081016040528092919081815260200182805461111190612062565b801561115e5780601f106111335761010080835404028352916020019161115e565b820191906000526020600020905b81548152906001019060200180831161114157829003601f168201915b5050505050815250509050919050565b6003600082815260200190815260200160002060000160009054906101000a900473ffffffffffffffffffffffffffffffffffffffff1673ffffffffffffffffffffffffffffffffffffffff163373ffffffffffffffffffffffffffffffffffffffff1614611212576040517f08c379a000000000000000000000000000000000000000000000000000000000815260040161120990611a47565b60405180910390fd5b8160036000838152602001908152602001600020600301908051906020019061123c9291906112e0565b507f48b0782b70f733764defb955380e89153fb21e6b639ed68c4bbb5079e096eabf818360405161126e929190611e5a565b60405180910390a15050565b6001816000016000828254019250508190555050565b600081600001549050919050565b600081836112ac9190612094565b905092915050565b600081836112c2919061211d565b905092915050565b600081836112d89190611f91565b905092915050565b8280546112ec90612062565b90600052602060002090601f01602090048101928261130e5760008555611355565b82601f1061132757805160ff1916838001178555611355565b82800160010185558215611355579182015b82811115611354578251825591602001919060010190611339565b5b50905061136291906113a4565b5090565b6040518060800160405280600073ffffffffffffffffffffffffffffffffffffffff1681526020016000815260200160608152602001606081525090565b5b808211156113bd5760008160009055506001016113a5565b5090565b6000604051905090565b600080fd5b600080fd5b6000819050919050565b6113e8816113d5565b81146113f357600080fd5b50565b600081359050611405816113df565b92915050565b600060208284031215611421576114206113cb565b5b600061142f848285016113f6565b91505092915050565b611441816113d5565b82525050565b600060208201905061145c6000830184611438565b92915050565b60008060408385031215611479576114786113cb565b5b6000611487858286016113f6565b9250506020611498858286016113f6565b9150509250929050565b600062ffffff82169050919050565b6114ba816114a2565b82525050565b60006040820190506114d560008301856114b1565b6114e260208301846114b1565b9392505050565b600080fd5b600080fd5b6000601f19601f8301169050919050565b7f4e487b7100000000000000000000000000000000000000000000000000000000600052604160045260246000fd5b61153c826114f3565b810181811067ffffffffffffffff8211171561155b5761155a611504565b5b80604052505050565b600061156e6113c1565b905061157a8282611533565b919050565b600067ffffffffffffffff82111561159a57611599611504565b5b6115a3826114f3565b9050602081019050919050565b82818337600083830152505050565b60006115d26115cd8461157f565b611564565b9050828152602081018484840111156115ee576115ed6114ee565b5b6115f98482856115b0565b509392505050565b600082601f830112611616576116156114e9565b5b81356116268482602086016115bf565b91505092915050565b600080600060608486031215611648576116476113cb565b5b600084013567ffffffffffffffff811115611666576116656113d0565b5b61167286828701611601565b9350506020611683868287016113f6565b925050604084013567ffffffffffffffff8111156116a4576116a36113d0565b5b6116b086828701611601565b9150509250925092565b600073ffffffffffffffffffffffffffffffffffffffff82169050919050565b60006116e5826116ba565b9050919050565b6116f5816116da565b811461170057600080fd5b50565b600081359050611712816116ec565b92915050565b6000806040838503121561172f5761172e6113cb565b5b600061173d85828601611703565b925050602061174e858286016113f6565b9150509250929050565b611761816114a2565b811461176c57600080fd5b50565b60008135905061177e81611758565b92915050565b6000806040838503121561179b5761179a6113cb565b5b60006117a98582860161176f565b92505060206117ba8582860161176f565b9150509250929050565b60006040820190506117d96000830185611438565b6117e66020830184611438565b9392505050565b60008060408385031215611804576118036113cb565b5b600083013567ffffffffffffffff811115611822576118216113d0565b5b61182e85828601611601565b925050602061183f858286016113f6565b9150509250929050565b600080600060608486031215611862576118616113cb565b5b600084013567ffffffffffffffff8111156118805761187f6113d0565b5b61188c86828701611601565b935050602061189d868287016113f6565b92505060406118ae868287016113f6565b9150509250925092565b6118c1816116da565b82525050565b6118d0816113d5565b82525050565b600081519050919050565b600082825260208201905092915050565b60005b838110156119105780820151818401526020810190506118f5565b8381111561191f576000848401525b50505050565b6000611930826118d6565b61193a81856118e1565b935061194a8185602086016118f2565b611953816114f3565b840191505092915050565b600060808301600083015161197660008601826118b8565b50602083015161198960208601826118c7565b50604083015184820360408601526119a18282611925565b915050606083015184820360608601526119bb8282611925565b9150508091505092915050565b600060208201905081810360008301526119e2818461195e565b905092915050565b600082825260208201905092915050565b7f77726f6e67206164647265737300000000000000000000000000000000000000600082015250565b6000611a31600d836119ea565b9150611a3c826119fb565b602082019050919050565b60006020820190508181036000830152611a6081611a24565b9050919050565b7f626c6f636b207072696365203c3d203130303030300000000000000000000000600082015250565b6000611a9d6015836119ea565b9150611aa882611a67565b602082019050919050565b60006020820190508181036000830152611acc81611a90565b9050919050565b7f4e6f7420656e6f756768742066756e6473000000000000000000000000000000600082015250565b6000611b096011836119ea565b9150611b1482611ad3565b602082019050919050565b60006020820190508181036000830152611b3881611afc565b9050919050565b7f626c6f636b207072696365203c3d20646563696d616c73000000000000000000600082015250565b6000611b756017836119ea565b9150611b8082611b3f565b602082019050919050565b60006020820190508181036000830152611ba481611b68565b9050919050565b611bb4816116da565b82525050565b6000611bc5826118d6565b611bcf81856119ea565b9350611bdf8185602086016118f2565b611be8816114f3565b840191505092915050565b600060a082019050611c086000830188611bab565b611c156020830187611438565b611c226040830186611438565b8181036060830152611c348185611bba565b90508181036080830152611c488184611bba565b90509695505050505050565b6000604082019050611c696000830185611438565b611c766020830184611bab565b9392505050565b7f4e6f7420746865206465706c6f79657200000000000000000000000000000000600082015250565b6000611cb36010836119ea565b9150611cbe82611c7d565b602082019050919050565b60006020820190508181036000830152611ce281611ca6565b9050919050565b600081905092915050565b50565b6000611d04600083611ce9565b9150611d0f82611cf4565b600082019050919050565b6000611d2582611cf7565b9150819050919050565b7f4661696c656420746f2077697468647261772062616c616e6365000000000000600082015250565b6000611d65601a836119ea565b9150611d7082611d2f565b602082019050919050565b60006020820190508181036000830152611d9481611d58565b9050919050565b7f746f74616c3c3130303030300000000000000000000000000000000000000000600082015250565b6000611dd1600c836119ea565b9150611ddc82611d9b565b602082019050919050565b60006020820190508181036000830152611e0081611dc4565b9050919050565b600081905092915050565b6000611e1d826118d6565b611e278185611e07565b9350611e378185602086016118f2565b80840191505092915050565b6000611e4f8284611e12565b915081905092915050565b6000604082019050611e6f6000830185611438565b8181036020830152611e818184611bba565b90509392505050565b7f626c6f636b733d30000000000000000000000000000000000000000000000000600082015250565b6000611ec06008836119ea565b9150611ecb82611e8a565b602082019050919050565b60006020820190508181036000830152611eef81611eb3565b9050919050565b7f4661696c656420746f2073656e642070726f7669646572206665650000000000600082015250565b6000611f2c601b836119ea565b9150611f3782611ef6565b602082019050919050565b60006020820190508181036000830152611f5b81611f1f565b9050919050565b7f4e487b7100000000000000000000000000000000000000000000000000000000600052601160045260246000fd5b6000611f9c826113d5565b9150611fa7836113d5565b9250827fffffffffffffffffffffffffffffffffffffffffffffffffffffffffffffffff03821115611fdc57611fdb611f62565b5b828201905092915050565b6000608082019050611ffc6000830187611bab565b6120096020830186611438565b6120166040830185611438565b81810360608301526120288184611bba565b905095945050505050565b7f4e487b7100000000000000000000000000000000000000000000000000000000600052602260045260246000fd5b6000600282049050600182168061207a57607f821691505b6020821081141561208e5761208d612033565b5b50919050565b600061209f826113d5565b91506120aa836113d5565b9250817fffffffffffffffffffffffffffffffffffffffffffffffffffffffffffffffff04831182151516156120e3576120e2611f62565b5b828202905092915050565b7f4e487b7100000000000000000000000000000000000000000000000000000000600052601260045260246000fd5b6000612128826113d5565b9150612133836113d5565b925082612143576121426120ee565b5b82820490509291505056fea2646970667358221220404073127f80b63d5cff357dbcfe9a929e79848e2264c70daed4730dbf6e32dd64736f6c634300080b0033",
  "immutableReferences": {},
  "source": "// SPDX-License-Identifier: GPL-3.0\npragma solidity >=0.8.0 <0.9.0;\n\nimport \"@openzeppelin/contracts/utils/math/SafeMath.sol\";\nimport \"@openzeppelin/contracts/utils/Counters.sol\";\n\ncontract IpfsManager {\n  using SafeMath for uint256;\n  using Counters for Counters.Counter;\n  Counters.Counter private providers_id;\n\n  struct Provider{\n    address account;\n    uint256 block_price;\n    string api_url;\n    string name;\n  }\n\n  address private deployer;\n  mapping(string=>mapping(uint256=>uint256)) private cid_valid_block;\n  mapping(uint256=>Provider) private service_providers; // addresses to pay to for pinning services\n  uint256 private provider_add_fee = 300000000000000; //Wei\n  uint24 private decimals = 100000;\n  uint24 private developer_fee = 2500; //2.5%\n\n  event UpdateValidBlock(address donor, uint256 end_block, uint256 provider_id, string cid);\n  event AddProvider(address creator, uint256 id, uint256 block_price, string api_url, string name);\n  event UpdateProviderBlockPrice(uint256 id, uint256 price);\n  event UpdateProviderApiUrl(uint256 id, string url);\n  event UpdateProviderAddress(uint256 id, address account);\n  event UpdateProviderName(uint256 id, string name);\n\n  modifier onlyOwner() {\n        require(msg.sender == deployer, \"Not the deployer\");\n        _;\n    }\n\n  function add_pinning_service(string memory _api_url, uint256 _block_price, string memory _name) public payable{\n    require(msg.value>=provider_add_fee, \"Not enought funds\");\n    require(_block_price>decimals, \"block price <= decimals\");\n    providers_id.increment();\n    uint256 id = providers_id.current();\n    service_providers[id] = Provider(msg.sender, _block_price, _api_url, _name);\n    emit AddProvider(msg.sender, id, _block_price, _api_url, _name);\n  }\n\n  function add_new_valid_block(string memory _cid, uint256 _num_blocks, uint256 _provider_id) public payable{\n    require(_num_blocks>0, \"blocks=0\");\n    (uint256 total_price, uint256 fee) = get_total_price_for_blocks(_num_blocks, _provider_id);\n    require(msg.value>=total_price.add(fee));\n     \n    (bool success_provider,) = service_providers[_provider_id].account.call{value: total_price}(\"\");\n    require(success_provider, \"Failed to send provider fee\");\n    \n    uint curBlock = block.number;\n    if(cid_valid_block[_cid][_provider_id]>curBlock){\n      cid_valid_block[_cid][_provider_id] += _num_blocks; \n    }else{\n      cid_valid_block[_cid][_provider_id] = curBlock+_num_blocks;\n    } \n    \n    emit UpdateValidBlock(msg.sender, cid_valid_block[_cid][_provider_id], _provider_id, _cid);\n  }\n\n  function get_valid_block(string memory _cid, uint256 _provider_id) public view returns(uint256){\n    return cid_valid_block[_cid][_provider_id];\n  }\n\n  function get_total_price_for_blocks(uint256 _blocks, uint256 _provider_id) public view returns(uint256, uint256){\n    uint256 price_for_blocks = _blocks.mul(service_providers[_provider_id].block_price);\n    require(price_for_blocks>decimals, \"total<100000\");\n    return (price_for_blocks,  price_for_blocks.mul(developer_fee).div(decimals));\n  }\n\n  function update_block_price(uint256 _price_wei, uint256 _provider_id) public{\n    require(msg.sender==service_providers[_provider_id].account, \"wrong address\");\n    require(_price_wei>decimals, \"block price <= 100000\");\n    service_providers[_provider_id].block_price = _price_wei;\n    emit UpdateProviderBlockPrice(_provider_id, _price_wei);\n  }\n\n  function update_api_url(string memory _url, uint256 _provider_id) public{\n    require(msg.sender==service_providers[_provider_id].account, \"wrong address\");\n    service_providers[_provider_id].api_url = _url;\n    emit UpdateProviderApiUrl(_provider_id, _url);\n  }\n\n  function update_address(address _new, uint256 _provider_id) public{\n    require(msg.sender==service_providers[_provider_id].account, \"wrong address\");\n    service_providers[_provider_id].account = _new;\n    emit UpdateProviderAddress(_provider_id, _new);\n  }\n\n  function update_name(string memory _new, uint256 _provider_id) public{\n    require(msg.sender==service_providers[_provider_id].account, \"wrong address\");\n    service_providers[_provider_id].name = _new;\n    emit UpdateProviderName(_provider_id, _new);\n  }\n\n  function get_per_block_price(uint256 _provider_id) public view returns(uint256){\n    return service_providers[_provider_id].block_price;\n  }\n\n  function get_provider_details(uint256 _provider_id) public view returns(Provider memory){\n    return service_providers[_provider_id];\n  }\n\n  function withdraw() public onlyOwner{\n        // send all Ether to deployer\n        (bool success,) = deployer.call{value: address(this).balance}(\"\");\n        require(success, \"Failed to withdraw balance\");\n  }\n\n  function update_dev_fee(uint24 _fee, uint24 _decimals) public onlyOwner{\n    developer_fee = _fee;\n    decimals = _decimals;\n  }\n  \n  function get_dev_fee() public view returns(uint24, uint24){\n    return (developer_fee, decimals);\n  }\n\n  function update_add_provider_fee(uint256 fee) public onlyOwner{\n    provider_add_fee = fee;\n  }\n\n  function get_add_provider_fee() public view returns(uint256){\n    return provider_add_fee;\n  }\n\n  constructor() {\n    deployer = msg.sender;\n  }\n}\n",
  "sourcePath": "/home/beast/Documents/Projects/anspar/anspar-ipfs/ipfs-manager/contracts/ipfsManager.sol",
  "compiler": {
    "name": "solc",
    "version": "0.8.11+commit.d7f03943.Emscripten.clang"
  },
  "schemaVersion": "3.4.3",
  "updatedAt": "2022-02-12T17:16:29.246Z",
  "networkType": "ethereum",
  "devdoc": {
    "kind": "dev",
    "methods": {},
    "version": 1
  },
  "userdoc": {
    "kind": "user",
    "methods": {},
    "version": 1
  }
}