{
  "contractName": "IpfsManager",
  "abi": [
    {
      "inputs": [],
      "stateMutability": "nonpayable",
      "type": "constructor"
    },
    {
      "anonymous": false,
      "inputs": [
        {
          "indexed": false,
          "internalType": "address",
          "name": "donor",
          "type": "address"
        },
        {
          "indexed": false,
          "internalType": "uint256",
          "name": "end_block",
          "type": "uint256"
        },
        {
          "indexed": false,
          "internalType": "uint256",
          "name": "block_price",
          "type": "uint256"
        },
        {
          "indexed": false,
          "internalType": "string",
          "name": "cid",
          "type": "string"
        }
      ],
      "name": "UpdateValidBlock",
      "type": "event"
    },
    {
      "inputs": [
        {
          "internalType": "string",
          "name": "_cid",
          "type": "string"
        }
      ],
      "name": "add_new_valid_block",
      "outputs": [],
      "stateMutability": "payable",
      "type": "function",
      "payable": true
    },
    {
      "inputs": [
        {
          "internalType": "string",
          "name": "_cid",
          "type": "string"
        }
      ],
      "name": "get_valid_block",
      "outputs": [
        {
          "internalType": "uint256",
          "name": "",
          "type": "uint256"
        }
      ],
      "stateMutability": "view",
      "type": "function",
      "constant": true
    },
    {
      "inputs": [
        {
          "internalType": "uint256",
          "name": "_price_wei",
          "type": "uint256"
        }
      ],
      "name": "get_num_of_valid_blocks",
      "outputs": [
        {
          "internalType": "uint256",
          "name": "",
          "type": "uint256"
        }
      ],
      "stateMutability": "view",
      "type": "function",
      "constant": true
    },
    {
      "inputs": [
        {
          "internalType": "uint256",
          "name": "_price_wei",
          "type": "uint256"
        }
      ],
      "name": "update_per_block_price",
      "outputs": [],
      "stateMutability": "nonpayable",
      "type": "function"
    },
    {
      "inputs": [],
      "name": "get_per_block_price",
      "outputs": [
        {
          "internalType": "uint256",
          "name": "",
          "type": "uint256"
        }
      ],
      "stateMutability": "view",
      "type": "function",
      "constant": true
    },
    {
      "inputs": [],
      "name": "withdraw",
      "outputs": [],
      "stateMutability": "nonpayable",
      "type": "function"
    }
  ],
  "bytecode": "0x608060405264174876e80060025534801561001957600080fd5b50336000806101000a81548173ffffffffffffffffffffffffffffffffffffffff021916908373ffffffffffffffffffffffffffffffffffffffff160217905550610aa9806100696000396000f3fe6080604052600436106100555760003560e01c80631490d53d1461005a5780633412dcf9146100835780633ccfd60b1461009f5780634b0f2cfd146100b65780634d5c7fde146100f3578063e9c1d20b1461011e575b600080fd5b34801561006657600080fd5b50610081600480360381019061007c91906104b6565b61015b565b005b61009d60048036038101906100989190610629565b610165565b005b3480156100ab57600080fd5b506100b46102ab565b005b3480156100c257600080fd5b506100dd60048036038101906100d891906104b6565b61040f565b6040516100ea9190610681565b60405180910390f35b3480156100ff57600080fd5b5061010861043a565b6040516101159190610681565b60405180910390f35b34801561012a57600080fd5b5061014560048036038101906101409190610629565b610444565b6040516101529190610681565b60405180910390f35b8060028190555050565b60006101703461040f565b9050600081116101b5576040517f08c379a00000000000000000000000000000000000000000000000000000000081526004016101ac906106f9565b60405180910390fd5b6000439050806001846040516101cb9190610793565b908152602001604051809103902054111561021a57816001846040516101f19190610793565b9081526020016040518091039020600082825461020e91906107d9565b92505081905550610249565b818161022691906107d9565b6001846040516102369190610793565b9081526020016040518091039020819055505b7f8eeea39f88e876c5e3b819810106e7b58d37a3737f2d9771989186d16aeac6073360018560405161027b9190610793565b9081526020016040518091039020546002548660405161029e94939291906108a9565b60405180910390a1505050565b60008054906101000a900473ffffffffffffffffffffffffffffffffffffffff1673ffffffffffffffffffffffffffffffffffffffff163373ffffffffffffffffffffffffffffffffffffffff1614610339576040517f08c379a000000000000000000000000000000000000000000000000000000000815260040161033090610941565b60405180910390fd5b600047905060008060009054906101000a900473ffffffffffffffffffffffffffffffffffffffff1673ffffffffffffffffffffffffffffffffffffffff168260405161038590610992565b60006040518083038185875af1925050503d80600081146103c2576040519150601f19603f3d011682016040523d82523d6000602084013e6103c7565b606091505b505090508061040b576040517f08c379a0000000000000000000000000000000000000000000000000000000008152600401610402906109f3565b60405180910390fd5b5050565b60006002548210156104245760009050610435565b600254826104329190610a42565b90505b919050565b6000600254905090565b60006001826040516104569190610793565b9081526020016040518091039020549050919050565b6000604051905090565b600080fd5b600080fd5b6000819050919050565b61049381610480565b811461049e57600080fd5b50565b6000813590506104b08161048a565b92915050565b6000602082840312156104cc576104cb610476565b5b60006104da848285016104a1565b91505092915050565b600080fd5b600080fd5b6000601f19601f8301169050919050565b7f4e487b7100000000000000000000000000000000000000000000000000000000600052604160045260246000fd5b610536826104ed565b810181811067ffffffffffffffff82111715610555576105546104fe565b5b80604052505050565b600061056861046c565b9050610574828261052d565b919050565b600067ffffffffffffffff821115610594576105936104fe565b5b61059d826104ed565b9050602081019050919050565b82818337600083830152505050565b60006105cc6105c784610579565b61055e565b9050828152602081018484840111156105e8576105e76104e8565b5b6105f38482856105aa565b509392505050565b600082601f8301126106105761060f6104e3565b5b81356106208482602086016105b9565b91505092915050565b60006020828403121561063f5761063e610476565b5b600082013567ffffffffffffffff81111561065d5761065c61047b565b5b610669848285016105fb565b91505092915050565b61067b81610480565b82525050565b60006020820190506106966000830184610672565b92915050565b600082825260208201905092915050565b7f6e6f7420656e6f756768742066756e6473000000000000000000000000000000600082015250565b60006106e360118361069c565b91506106ee826106ad565b602082019050919050565b60006020820190508181036000830152610712816106d6565b9050919050565b600081519050919050565b600081905092915050565b60005b8381101561074d578082015181840152602081019050610732565b8381111561075c576000848401525b50505050565b600061076d82610719565b6107778185610724565b935061078781856020860161072f565b80840191505092915050565b600061079f8284610762565b915081905092915050565b7f4e487b7100000000000000000000000000000000000000000000000000000000600052601160045260246000fd5b60006107e482610480565b91506107ef83610480565b9250827fffffffffffffffffffffffffffffffffffffffffffffffffffffffffffffffff03821115610824576108236107aa565b5b828201905092915050565b600073ffffffffffffffffffffffffffffffffffffffff82169050919050565b600061085a8261082f565b9050919050565b61086a8161084f565b82525050565b600061087b82610719565b610885818561069c565b935061089581856020860161072f565b61089e816104ed565b840191505092915050565b60006080820190506108be6000830187610861565b6108cb6020830186610672565b6108d86040830185610672565b81810360608301526108ea8184610870565b905095945050505050565b7f4e6f7420746865206465706c6f79657200000000000000000000000000000000600082015250565b600061092b60108361069c565b9150610936826108f5565b602082019050919050565b6000602082019050818103600083015261095a8161091e565b9050919050565b600081905092915050565b50565b600061097c600083610961565b91506109878261096c565b600082019050919050565b600061099d8261096f565b9150819050919050565b7f4661696c656420746f2077697468647261772062616c616e6365000000000000600082015250565b60006109dd601a8361069c565b91506109e8826109a7565b602082019050919050565b60006020820190508181036000830152610a0c816109d0565b9050919050565b7f4e487b7100000000000000000000000000000000000000000000000000000000600052601260045260246000fd5b6000610a4d82610480565b9150610a5883610480565b925082610a6857610a67610a13565b5b82820490509291505056fea264697066735822122071e375a7f14c6b3ed8fe404c5870e8f178668afe7005f0429061fd7b7fd0968364736f6c634300080b0033",
  "immutableReferences": {},
  "source": "// SPDX-License-Identifier: GPL-3.0\npragma solidity >=0.8.0 <0.9.0;\n\ncontract IpfsManager {\n\n  address private deployer;\n  mapping(string=>uint256) private cid_valid_block;\n  uint256 private per_block_price = 100*1e9; // 100 Gwei\n\n  event UpdateValidBlock(address donor, uint256 end_block, uint256 block_price, string cid);\n\n  modifier onlyOwner() {\n        require(msg.sender == deployer, \"Not the deployer\");\n        _;\n    }\n\n  function add_new_valid_block(string memory _cid) public payable{\n    uint256 num_blocks = get_num_of_valid_blocks(msg.value);\n    require(num_blocks>0, \"not enought funds\");\n    uint curBlock = block.number;\n    if(cid_valid_block[_cid]>curBlock){\n      cid_valid_block[_cid] += num_blocks; \n    }else{\n      cid_valid_block[_cid] = curBlock+num_blocks;\n    } \n    emit UpdateValidBlock(msg.sender, cid_valid_block[_cid], per_block_price, _cid);\n  }\n\n  function get_valid_block(string memory _cid) public view returns(uint256){\n    return cid_valid_block[_cid];\n  }\n\n  function get_num_of_valid_blocks(uint256 _price_wei) public view returns(uint256){\n    if (_price_wei<per_block_price) return 0;\n    return _price_wei/per_block_price;\n  }\n\n  function update_per_block_price(uint256 _price_wei) public{\n    per_block_price = _price_wei;\n  }\n\n  function get_per_block_price() public view returns(uint256){\n    return per_block_price;\n  }\n\n  function withdraw() public onlyOwner{\n        // get the amount of Ether stored in this contract\n        uint amount = address(this).balance;\n\n        // send all Ether to deployer\n        (bool success,) = deployer.call{value: amount}(\"\");\n        require(success, \"Failed to withdraw balance\");\n    }\n  \n  constructor() {\n    deployer = msg.sender;\n  }\n}\n",
  "sourcePath": "/home/beast/Documents/Projects/anspar/anspar-ipfs/ipfs-manager/contracts/ipfsManager.sol",
  "compiler": {
    "name": "solc",
    "version": "0.8.11+commit.d7f03943.Emscripten.clang"
  },
  "schemaVersion": "3.4.3",
  "updatedAt": "2022-01-08T15:14:18.835Z",
  "networkType": "ethereum",
  "devdoc": {
    "kind": "dev",
    "methods": {},
    "version": 1
  },
  "userdoc": {
    "kind": "user",
    "methods": {},
    "version": 1
  }
}